:100000000C947C000C94090E0C94E20D0C94A4004A
:100010000C94A4000C94A4000C94A4000C94A400D0
:100020000C94A4000C94A4000C94A4000C94A400C0
:100030000C94A4000C94A4000C94A4000C94A400B0
:100040000C949C0D0C94A4000C94560E0C94300E41
:100050000C94A4000C94A4000C94A4000C94A40090
:100060000C94860C0C94A4000000000023002600D1
:1000700029002C0000000000240027002A002D0089
:100080005A696762656520636F6D6D616E640057C4
:10009000616974696E6720666F7200000000002558
:1000A0000028002B002E00040404040404040402AD
:1000B000020202020203030303030305050505050B
:1000C00005050102040810204080010204081020E8
:1000D0000102040810200208010410204000000062
:1000E00008500201000003040700000000000000A7
:1000F00000000000880E701511241FBECFEFD8E05D
:10010000DEBFCDBF11E0A0E0B1E0E8E3F1E302C063
:1001100005900D92A239B107D9F723E0A2E9B1E029
:1001200001C01D92A130B207E1F710E0CBE7D0E0AB
:1001300004C02197FE010E944B16CA37D107C9F7A8
:100140000E94780F0C948F180C9400009FB781BD0B
:1001500012BC60BDF89484E08FBB82E08FBB9FBF70
:10016000089581BD12BCF89A0000000080B5089582
:100170002091380281E0213208F040C080911402C1
:100180008111FCCF8091370292E09093140291E0AC
:10019000909313029FEF90931202109211022093FA
:1001A0001002A7E1B2E0E0EFF1E090E029132DC0EA
:1001B0001092EF019091EF01880F892B8093EF014E
:1001C0008091EE01813031F41092EE018091EF01C7
:1001D0008093BB0085EE8093BC0080911402823036
:1001E000E1F3809112028F3FA1F0809112028032E0
:1001F00091F080911202803381F084E01092160217
:10020000109238021092150208953D9131939F5F2C
:10021000CDCF80E0F3CF82E0F1CF83E0EFCF85ED6B
:100220008093BC008091BC0084FDFCCF109214022E
:100230000895613298F420911402243089F4609377
:10024000C701282FA7EAB1E0FC018E2F821B861779
:1002500010F080E0089581918D93F7CF81E00895AB
:1002600082E00895089581E090E03091A601209108
:10027000A501321710F490E080E0919581959109E5
:1002800008958091A6019091A501891730F48F5FA0
:100290008093A60190E080E008958FEF9FEF08958E
:1002A0008091A5019091A601891B990B0895CF9289
:1002B000DF92EF92FF920F931F93CF93DF937C0116
:1002C000CB018A0120911502222389F0EB016B01F9
:1002D000C40ED51ECC15DD0569F06991D701ED91ED
:1002E000FC910190F081E02DC7010995F3CF642FB7
:1002F0000E941901C801DF91CF911F910F91FF90CA
:10030000EF90DF90CF900895CF93DF931F92CDB7FA
:10031000DEB76983209115022223F9F0209138027B
:10032000203258F021E030E0FC013383228390E05A
:1003300080E00F90DF91CF91089580911602E82F11
:10034000F0E0E95EFD4F998190838F5F8093160204
:100350008093380281E090E0ECCF61E0CE0101961D
:100360000E941901F7CF81508B3088F5E82FF0E01B
:10037000E454FE4F0C944B16D101D501C701CD01B9
:10038000E701E701D801DE01E201E801EC0180911B
:1003900080008F77809380000895809180008F7D0A
:1003A000F9CF84B58F7784BD089584B58F7DFBCF59
:1003B0008091B0008F778093B00008958091B00055
:1003C0008F7DF9CF809190008F7780939000089572
:1003D000809190008F7DF9CF80919000877FF5CF3D
:1003E0001F93CF93DF93282F30E0F901E352FF4FA3
:1003F0008491F901EE53FF4FD491F901E955FF4F74
:10040000C491CC23A9F0162F81110E94B301EC2FC7
:10041000F0E0EE0FFF1FE556FF4FA591B4918FB7A7
:10042000F894EC91111108C0D095DE23DC938FBFB6
:10043000DF91CF911F910895DE2BF8CF3FB7F8944D
:100440008091A1019091A201A091A301B091A4017A
:1004500026B5A89B05C02F3F19F00196A11DB11D1F
:100460003FBFBA2FA92F982F8827BC01CD01620F5B
:10047000711D811D911D660F771F881F991F08959B
:100480008F929F92AF92BF92CF92DF92EF92FF92A4
:100490004B015C010E941E026B017C010E941E0246
:1004A0006C197D098E099F09683E7340810591058D
:1004B000A8F321E0821A9108A108B10888EEC80EBD
:1004C00083E0D81EE11CF11C81149104A104B10445
:1004D00029F7FF90EF90DF90CF90BF90AF909F9063
:1004E0008F90089508950895DB0114964D915C91C5
:1004F00015976D917C91DC01ED91FC910280F38167
:10050000E02D0994AF92BF92CF92DF92EF92FF92CB
:100510000F931F93CF93DF936C017B018B01040F2B
:10052000151FEB015E01AE18BF08C017D10759F0C7
:100530006991D601ED91FC910190F081E02DC60109
:100540000995892B79F7C501DF91CF911F910F9103
:10055000FF90EF90DF90CF90BF90AF900895FC0197
:10056000538D448D252F30E0842F90E0821B930B18
:10057000541710F0CF96089501970895FC01918DBE
:10058000828D981761F0A28DAE0FBF2FB11D5D96C1
:100590008C91928D9F5F9F73928F90E008958FEF63
:1005A0009FEF08952FB7F8948091EA019091EB01A5
:1005B000A091EC01B091ED012FBF80934D0290937B
:1005C0004E02A0934F02B093500285E492E00E9445
:1005D000BE0297FF26C02FB7F8948091EA01909150
:1005E000EB01A091EC01B091ED012FBF40914D02C4
:1005F00050914E0260914F0270915002841B950BF6
:10060000A60BB70B4091490250914A0260914B02F0
:1006100070914C0284179507A607B707B0F28FEFC9
:100620009FEF0895FC01918D828D981731F0828D96
:10063000E80FF11D858D90E008958FEF9FEF0895ED
:10064000FC01918D228D892F90E0805C9F4F821B51
:1006500091098F739927089585E492E00E94200301
:1006600021E0892B09F420E0822F089580E090E0BA
:10067000892B29F00E942C0381110C94000008950D
:10068000FC01A48DA80FB92FB11DA35ABF4F2C9107
:10069000848D90E001968F739927848FA689B789FE
:1006A0002C93A089B1898C9180648C93938D848DD7
:1006B000981306C00288F389E02D80818F7D8083A6
:1006C0000895EF92FF920F931F93CF93DF93EC0166
:1006D00081E0888F9B8D8C8D981316C0E889F989ED
:1006E000808185FF11C0EE89FF896083E889F989DF
:1006F00080818064808381E090E0DF91CF911F91C1
:100700000F91FF90EF900895F62E0B8D10E00F5F84
:100710001F4F0F731127E02E8C8D8E110CC00FB65A
:1007200007FCFACFE889F989808185FFF5CFCE01F2
:100730000E944003F1CFEB8DEC0FFD2FF11DE35A2A
:10074000FF4FF0820B8FEA89FB8980818062D2CFD4
:10075000CF93DF93EC01888D8823B9F0AA89BB89F8
:10076000E889F9898C9185FD03C0808186FD0DC0E3
:100770000FB607FCF7CF8C9185FFF2CF808185FF04
:10078000EDCFCE010E944003E9CFDF91CF910895D4
:10079000FC01228931E03093150220933702109238
:1007A0001602109238028085682B89E392E00E943D
:1007B00084010E94B80091E0811190E0892F089592
:1007C0008091FC02882399F0813011F41092F0029C
:1007D0008091F0029091F10201C0880F9A95EAF79A
:1007E0008093F00260E088EE92E00C94C8038FEFF3
:1007F0008093F002EDCF8091FC02882399F0813044
:1008000011F48093F0028091F0029091F10201C006
:10081000880F9A95EAF78093F00260E088EE92E004
:100820000C94C8038EEFEDCFFC0127E030E080E0B0
:1008300070E0DB01022E02C0B595A7950A94E2F79D
:10084000AD0141705527A0FF06C0908901C0440F3B
:100850009A95EAF7842B2150310931972F3F3207BF
:1008600041F708959F92AF92BF92CF92DF92EF929D
:10087000FF920F931F93CF93DF93EC01A62EB42E1C
:10088000922E642F6695669566956E716A290E9410
:100890001404182F682FCE010E94C8038E85C12C26
:1008A000D12C7601C394A701960104C0220F331FF7
:1008B000441F551F8A95D2F7C9018095682F61237F
:1008C000CE010E94C8030DEF10E0C8010197F1F7B7
:1008D00038E093121DC06B2D660F6E716A29CE0130
:1008E0000E941404B82E682FCE010E94C8038E8582
:1008F00004C0CC0CDD1CEE1CFF1C8A95D2F7C09402
:100900006C2D6B21CE010E94C803C8010197F1F73D
:10091000DF91CF911F910F91FF90EF90DF90CF90DB
:10092000BF90AF909F900895CF93DF9300D000D0F9
:10093000CDB7DEB71A82198290E49A839091EE02C5
:100940009B8320E4290F2C832091EF02621710F083
:100950006FEF620F891710F08FEF890FFE01E60F1E
:10096000F11D4181480F406828E060E288EE92E086
:100970000F900F900F900F90DF91CF910C94320455
:1009800028E041E060E288EE92E00E94320462E0FA
:1009900070E080E090E00C944002462F28E060EA8E
:1009A0000E94320481E090E008950F931F93CF934B
:1009B000DF938C01D0E0C0E0F801EC0FFD1F6491E3
:1009C000662341F088EE92E00E94CD04892B11F05D
:1009D0002196F2CFCE01DF91CF911F910F91089513
:1009E00090E080E00895CF93DF93EC018091E202E4
:1009F0009091E3020097E9F06881798161157105B2
:100A0000B1F04091E4025091E5022C813D81421702
:100A1000530768F00E9460188C819D819093E702D3
:100A20008093E6021D821C82DF91CF9108950E947F
:100A30000817888199819093E3028093E2028A816A
:100A40009B819093E5028093E4028C819D81909339
:100A5000E7028093E602198218821B821A82E2CF93
:100A6000CF93DF93EC0188819981009711F00E9468
:100A70000817198218821D821C821B821A82DF913C
:100A8000CF910895FC01808191810C940817CF9338
:100A9000DF93DC0114962D913C911597232B79F06F
:100AA000FB01CD91DC9160817181CE010E947518AE
:100AB000009729F08C1B9D0BDF91CF9108958FEF4C
:100AC0009FEFFACFFC0180819181009711F00C9487
:100AD000741560E070E0CB010895FC01248135813C
:100AE000232B39F421E0FB018081882349F020E0A9
:100AF00007C0808191810E94571821E0892BB9F7A6
:100B0000822F08950F931F93CF93DF93EC01888179
:100B10009981009759F02A813B812617370730F0D9
:100B200081E0DF91CF911F910F9108958B016F5F4D
:100B30007F4F0E949117009759F0998388831B83F8
:100B40000A832C813D81232B59F7FC011082E8CFC9
:100B500080E0E7CFEF92FF920F931F93CF93DF9345
:100B6000EC01FB01E080F180E114F10411F104815A
:100B7000158101151105A9F08C819D81080F191FA0
:100B8000B801CE010E948205882399F0288139811D
:100B90008C819D81B701820F931F0E9460181D8375
:100BA0000C83CE01DF91CF911F910F91FF90EF90B9
:100BB0000895CE010E943005F4CFEF92FF920F937B
:100BC0001F93CF93DF93EC017B018A01BA010E944E
:100BD000820581110BC0CE010E943005CE01DF914C
:100BE000CF911F910F91FF90EF9008951D830C837B
:100BF000B701888199810E946018F0CFEF92FF922F
:100C00000F931F93CF93DF93CDB7DEB762970FB6E5
:100C1000F894DEBF0FBECDBF8C01CB01F80111826D
:100C2000108213821282158214824AE09E012F5F85
:100C30003F4F7901B9010E949B15F70101900020F7
:100C4000E9F73197AF014E195F09B701C8010E945A
:100C5000DD0562960FB6F894DEBF0FBECDBFDF9103
:100C6000CF911F910F91FF90EF900895FB01DC0150
:100C700011961C921E9213961C921E921297159614
:100C80001C921E9214978617970749F06081718114
:100C90006115710521F0448155810C94DD0508959D
:100CA000FC01118210821382128215821482FB01D0
:100CB00001900020E9F73197AF01461B570B0C94C8
:100CC000DD05AF92BF92CF92DF92EF92FF920F932A
:100CD0001F93CF93DF937C016B015A018901241785
:100CE000350720F48B2D5901042F182F68E771E088
:100CF000C7010E945006D6011496CD91DC91AC1626
:100D0000BD0620F50C171D0708F4E801D601ED918A
:100D1000FC911197EC0FFD1F108110826D917C9159
:100D20006A0D7B1D61157105E9F0FB010190002042
:100D3000E9F73197AF01461B570BC7010E94DD054C
:100D4000F60180819181C80FD91F1883C701DF91F7
:100D5000CF911F910F91FF90EF90DF90CF90BF90B8
:100D6000AF900895C7010E943005EACFCF92DF927D
:100D7000EF92FF920F931F93CF93DF9300D000D099
:100D800000D0CDB7DEB78C017B016A01FC01848104
:100D90009581892B09F44CC080919201811105C085
:100DA00081E0809392010E94C004F7FC06C0D7FC4A
:100DB00004C06C2D8E2D0E949404B80188EE92E040
:100DC0000E947402892B09F16EE371E0CE01019655
:100DD0000E945006BE016F5F7F4F85E492E00E9443
:100DE0007402CE0101960E94420581E026960FB65C
:100DF000F894DEBF0FBECDBFDF91CF911F910F9151
:100E0000FF90EF90DF90CF90089561E471E0CE0104
:100E100001960E945006BE016F5F7F4F85E492E00D
:100E20000E947402CE0101960E94420580E0DECF4E
:100E300064E471E0CE0101960E945006BE016F5F2E
:100E40007F4F85E492E00E947402CE0101960E94D9
:100E50004205CCCF0F931F93CF93DF9300D000D0E8
:100E600000D0CDB7DEB78C0181309105E9F5409116
:100E7000EC02842F84608093EC024C6028E060E2F6
:100E800088EE92E00E9432040E94FB0367E471E066
:100E9000CE0101960E945006BE016F5F7F4F85E430
:100EA00092E00E947402CE0101960E944205023037
:100EB000110578F490E080E00E94B10080171106DF
:100EC00041F061E0012B09F460E090E080E00E94D5
:100ED000A60026960FB6F894DEBF0FBECDBFDF91F9
:100EE000CF911F910F910895892B09F70E94E0037C
:100EF0004091EC024B7F4093EC02486028E060E2B6
:100F000088EE92E00E9432046AE471E0C1CF0F9350
:100F10001F93CF93DF9300D000D000D0CDB7DEB7C2
:100F20008C0181309105D9F54091EC02842F8160CC
:100F30008093EC02496028E060E288EE92E00E9433
:100F400032046DE471E0CE0101960E945006BE01AC
:100F50006F5F7F4F85E492E00E947402CE0101969C
:100F60000E9442050230110578F481E090E00E9471
:100F7000B1008017110641F061E0012B09F460E037
:100F800081E090E00E94A60026960FB6F894DEBF9E
:100F90000FBECDBFDF91CF911F910F910895892B87
:100FA00009F74091EC024E7F4093EC02486028E044
:100FB00060E288EE92E00E94320460E571E0C3CF07
:100FC0000F931F93CF93DF9300D000D000D0CDB705
:100FD000DEB78C0181309105D9F54091ED02842F67
:100FE00081608093ED02456028E060E288EE92E047
:100FF0000E94320463E571E0CE0101960E94500622
:10100000BE016F5F7F4F85E492E00E947402CE01C3
:1010100001960E9442050230110578F483E090E0C9
:101020000E94B1008017110641F061E0012B09F424
:1010300060E083E090E00E94A60026960FB6F89448
:10104000DEBF0FBECDBFDF91CF911F910F910895ED
:10105000892B09F74091ED024E7F4093ED024460E9
:1010600028E060E288EE92E00E94320466E571E0DA
:10107000C3CF0F931F93CF93DF9300D000D000D046
:10108000CDB7DEB78C0181309105D9F54091EC02E6
:10109000842F82608093EC024A6028E060E288EE50
:1010A00092E00E94320469E571E0CE0101960E944F
:1010B0005006BE016F5F7F4F85E492E00E9474028C
:1010C000CE0101960E9442050230110578F482E0BB
:1010D00090E00E94B1008017110641F061E0012B01
:1010E00009F460E082E090E00E94A60026960FB628
:1010F000F894DEBF0FBECDBFDF91CF911F910F914E
:101100000895892B09F74091EC024D7F4093EC0242
:10111000486028E060E288EE92E00E9432046CE5CC
:1011200071E0C3CF0F931F93CF93DF9300D000D014
:1011300000D0CDB7DEB78C018130910581F50E94DA
:10114000FB036FE571E0CE0101960E945006BE01DF
:101150006F5F7F4F85E492E00E947402CE0101969A
:101160000E9442050230110578F484E090E00E946C
:10117000B1008017110641F061E0012B09F460E035
:1011800084E090E00E94A60026960FB6F894DEBF99
:101190000FBECDBFDF91CF911F910F910895892B85
:1011A00009F70E94E00362E671E0CDCFCF92DF92B3
:1011B000EF92FF920F931F93CF93DF9300D000D055
:1011C00000D0CDB7DEB7EFEDF0E08491E4ECF0E0D5
:1011D0000491E9EAF0E01491112309F443C081116C
:1011E0000E94B301E12FF0E0EE0FFF1FE859FF4F1F
:1011F000A591B491EC91E023A9F18091980190918F
:1012000099011816190634F481E090E090930501D5
:101210008093040165E671E0CE0101960E945006BC
:10122000BE016F5F7F4F85E492E00E947402CE01A1
:1012300001960E944205109294011092950110921D
:1012400096011092970126960FB6F894DEBF0FBE56
:10125000CDBFDF91CF911F910F91FF90EF90DF9065
:10126000CF90089568E671E0CE0101960E94500685
:10127000BE016F5F7F4F85E492E00E947402CE0151
:1012800001960E944205809198019091990118164B
:101290001906CCF62FB7F894C090EA01D090EB0174
:1012A000E090EC01F090ED012FBF24E6289FD001E3
:1012B000299FB00D11242AE030E00E945116C60E7D
:1012C000D71EE81EF91EC0929401D0929501E092BB
:1012D0009601F0929701B7CFFF920F931F93CF9390
:1012E000DF93CDB7DEB762970FB6F894DEBF0FBEBF
:1012F000CDBF8C019093990180939801BC01CE01E0
:1013000007960E94FE056BE671E0CE010D960E94E5
:101310005006BE01695F7F4FCE010D960E94AA055F
:10132000BC01CE0101960E943606BE016F5F7F4F61
:1013300085E492E00E947402CE0101960E9442056B
:10134000CE010D960E944205CE0107960E944205ED
:101350008EE090E00E94B100F82E8FE090E00E94B5
:10136000B10090E024E6F29E800D911D1124081733
:10137000190779F0C80164E670E00E943716182F4B
:101380008EE090E00E94A600612F8FE090E00E9426
:10139000A60062960FB6F894DEBF0FBECDBFDF91F8
:1013A000CF911F910F91FF900895FF920F931F937C
:1013B000CF93DF93CDB7DEB762970FB6F894DEBF59
:1013C0000FBECDBF8C0190939B0180939A01BC010D
:1013D000CE0107960E94FE056DE671E0CE010D96E6
:1013E0000E945006BE01695F7F4FCE010D960E949C
:1013F000AA05BC01CE0101960E943606BE016F5FB0
:101400007F4F85E492E00E947402CE0101960E9413
:101410004205CE010D960E944205CE0107960E941C
:1014200042050115110539F484E090E00E94B100F5
:1014300090E00E9492088CE090E00E94B100F82EAB
:101440008DE090E00E94B10090E024E6F29E800DD5
:10145000911D11240817190779F0C80164E670E09E
:101460000E943716182F8CE090E00E94A600612F92
:101470008DE090E00E94A60062960FB6F894DEBF61
:101480000FBECDBFDF91CF911F910F91FF900895B7
:10149000FF920F931F93CF93DF93CDB7DEB7629781
:1014A0000FB6F894DEBF0FBECDBF8C0145EC50E007
:1014B000FA0164918AEA90E0FC012491222399F0D8
:1014C00030E0220F331FF901EC58FF4FA591B49182
:1014D000F901E556FF4F259134912FB7F8943C91CF
:1014E000632B6C932FBF98013327FA014491FC01C1
:1014F0008491882399F090E0880F991FFC01EC58A3
:10150000FF4FA591B491FC01E556FF4F8591949151
:101510008FB7F8949C91492B4C938FBF21153105BF
:1015200009F05BC060E083E00E94F001B801CE01E9
:1015300007960E94FE056FE671E0CE010D960E94AF
:101540005006BE01695F7F4FCE010D960E94AA052D
:10155000BC01CE0101960E943606BE016F5F7F4F2F
:1015600085E492E00E947402CE0101960E94420539
:10157000CE010D960E944205CE0107960E944205BB
:101580008AE090E00E94B100F82E8BE090E00E948B
:10159000B10090E0F4E6FF9E800D911D1124081724
:1015A000190779F0C80164E670E00E943716182F19
:1015B0008AE090E00E94A600612F8BE090E00E94FC
:1015C000A60062960FB6F894DEBF0FBECDBFDF91C6
:1015D000CF911F910F91FF9008952F3F310511F486
:1015E00061E0A1CFE0EEF0E0E491E73009F442C021
:1015F000B8F4E23081F130F4E13041F120383105C6
:101600007CF790CFE33061F1E430C1F78091800046
:1016100080628093800030938B0020938A0086CF75
:10162000EA30C1F160F4E83069F1E93039F78091CE
:1016300090008068809390000093980077CFEB3003
:1016400089F1E035D9F60093A10070CF84B58068A8
:1016500084BD07BD6BCF84B5806284BD08BD66CFF5
:10166000809180008068809380003093890020936F
:1016700088005CCF8091B00080688093B0000093B8
:10168000B30054CF8091B00080628093B00000938B
:10169000B4004CCF809190008062809390000093C2
:1016A0009A0044CF809190008860809390000093CE
:1016B0009E003CCF2F923F924F925F926F927F920B
:1016C0008F929F92AF92BF92CF92DF92EF92FF9252
:1016D0000F931F93CF93DF93CDB7DEB766970FB607
:1016E000F894DEBF0FBECDBF7C016B012A013E8B9B
:1016F0002D8B38010E9447058C0197FD90C061E752
:1017000071E0C6010E946D05580192E0A90EB11C5E
:1017100048019FEF891A990A811115C06FE671E09F
:10172000C6010E946D0581110EC06DE671E0C60113
:101730000E946D05811107C06BE671E0C6010E9431
:101740006D05882399F1C80103969C8B8B8B9C01B6
:10175000A501B701CE0107960E9461068B859C8585
:10176000892B21F0EF81F885309721F410929301B5
:10177000E3E9F1E06081062E000C770B1B0190E39A
:10178000291A31088AE02816310408F465C0950149
:10179000A401B701CE0101960E946106CE01019617
:1017A0000E9462058B010619170997C09501A401D3
:1017B000B701CE0101960E946106CE0101960E94FA
:1017C00062058B0106191709CE0101960E94420598
:1017D000401651062CF48D899E890817190714F1BB
:1017E00063E771E0CE0101960E945006B601CE017A
:1017F00001960E94AA05BC01CE0107960E943606FA
:10180000BE01695F7F4F85E492E00E947402CE01C1
:1018100007960E944205CE0101960E944205820170
:101820000F5F1F4FC80166960FB6F894DEBF0FBE5C
:10183000CDBFDF91CF911F910F91FF90EF90DF907F
:10184000CF90BF90AF909F908F907F906F905F9060
:101850004F903F902F90089598012C5F3F4F4B89F8
:101860005C89B701CE0101960E9461068D819E813F
:10187000892B21F0E981FA81309721F410929301AC
:10188000E3E9F1E00081002E000C110B0053110977
:101890009501A401B701CE010D960A30110520F57E
:1018A0000E946106CE010D960E9462052AE0229DEB
:1018B000A001239D500D11249A0126193709020F0A
:1018C000131F24E6269FA001279F500D1124040F0B
:1018D000151FCE010D960E944205CE0101960E9471
:1018E0004205CE01079672CF0E946106CE010D9689
:1018F0000E9462052AE0269F8001279F100D112477
:10190000B10166197709060F171FE3CF1F920F92D7
:101910000FB60F9211242F933F934F935F936F93C2
:101920007F938F939F93AF93BF93EF93FF93809198
:10193000B900887F803609F44AC0F0F5883209F48E
:10194000A5C018F5803109F499C0B8F4882309F4CA
:10195000F0C0883009F492C0FF91EF91BF91AF9130
:101960009F918F917F916F915F914F913F912F91B7
:101970000F900FBE0F901F901895883109F486C004
:10198000803251F78093120214C0803409F49BC056
:1019900040F48033B9F38833F9F68093120285EC72
:1019A000AEC0803509F483C0883509F494C088340A
:1019B00099F60E940F01D0CF883909F48AC038F512
:1019C000883729F050F4883611F0803729F683E003
:1019D000809314021092E90155C0883809F479C047
:1019E000803919F0803809F0B7CF8091E901803251
:1019F00008F06FC0E091E90181E08E0F8093E9016A
:101A00008091BB00F0E0E753FE4F80833BC0803BFA
:101A100039F0D0F4803A09F477C0883A09F09CCFC5
:101A200084E0809314021092C8011092C701F0E084
:101A3000E0E009958091C70181110FC081E080939A
:101A4000C7011092A70109C0803C09F4A8CF883CC7
:101A500009F4A5CF883B09F07FCFE091C80181E070
:101A60008E0F8093C801F0E0E955FE4F808180938E
:101A7000BB009091C8018091C70129C08091EF01FE
:101A80008093BB0085EC8093BC0066CF90911102DF
:101A900080911002981758F5E091110281E08E0FA5
:101AA00080931102F0E0E051FE4F8081E9CFE09198
:101AB000110281E08E0F809311028091BB00F0E053
:101AC000E051FE4F8083909111028091100298178F
:101AD000C8F285E8D8CFE091110281E08E0F8093A3
:101AE00011028091BB00F0E0E051FE4F80838091B5
:101AF000130281115ECF81E08093EE0184EA80932E
:101B0000BC001092140228CF8091E901803230F499
:101B1000E091E901F0E0E753FE4F10826091E901A6
:101B200070E089EC91E0F0E0E0E009951092E901C5
:101B300036CF109212023DCF1F920F920FB60F9226
:101B400011242F933F938F939F93AF93BF938091D3
:101B5000EA019091EB01A091EC01B091ED0130917F
:101B6000A00120E4230F2D3728F023EC230F01964A
:101B7000A11DB11D2093A0018093EA019093EB0178
:101B8000A093EC01B093ED018091A1019091A2018D
:101B9000A091A301B091A4010196A11DB11D809354
:101BA000A1019093A201A093A301B093A401BF91BE
:101BB000AF919F918F913F912F910F900FBE0F90FA
:101BC0001F9018951F920F920FB60F9211242F930A
:101BD0003F934F935F936F937F938F939F93AF93B5
:101BE000BF93EF93FF93E0910201F09103010995F8
:101BF000FF91EF91BF91AF919F918F917F916F91E5
:101C00005F914F913F912F910F900FBE0F901F90BA
:101C100018951F920F920FB60F9211242F933F9396
:101C20004F935F936F937F938F939F93AF93BF93E4
:101C3000EF93FF93E0910001F09101010995FF916D
:101C4000EF91BF91AF919F918F917F916F915F9134
:101C50004F913F912F910F900FBE0F901F901895AD
:101C60001F920F920FB60F9211242F933F934F9311
:101C70005F936F937F938F939F93AF93BF93EF93F4
:101C8000FF9385E492E00E944003FF91EF91BF91A2
:101C9000AF919F918F917F916F915F914F913F9104
:101CA0002F910F900FBE0F901F9018951F920F92BB
:101CB0000FB60F9211242F938F939F93EF93FF935F
:101CC000E0915502F09156028081E0915B02F09123
:101CD0005C0282FD1BC0908180915E028F5F8F73DA
:101CE00020915F02821741F0E0915E02F0E0EB5B31
:101CF000FD4F958F80935E02FF91EF919F918F91A1
:101D00002F910F900FBE0F901F9018958081F4CFE8
:101D10000F931F93CF93DF93CDB7DEB728970FB6FE
:101D2000F894DEBF0FBECDBF10923C0210923B0272
:101D300088EE93E0A0E0B0E080933D0290933E02F5
:101D4000A0933F02B093400222E131E030933A0287
:101D50002093390210924802109247028093490260
:101D600090934A02A0934B02B0934C0284E291E01C
:101D7000909346028093450285EC90E09093520246
:101D80008093510284EC90E090935402809353022C
:101D900080EC90E0909356028093550281EC90E0A5
:101DA000909358028093570282EC90E090935A02ED
:101DB0008093590286EC90E090935C0280935B02E2
:101DC00010925E0210925F02109260021092610205
:101DD00080E886BF8CE486BF1092EB021092EA0284
:101DE00086E391E09093E9028093E8021092EC027E
:101DF0001092ED0284E0898385E08A8386E08B83FC
:101E000080E18C838BE08D838CE08E838DE08F83EB
:101E10008EE0888787E28093FA0281E08093FC025B
:101E20009091F1026091F5025091F4024091F30219
:101E30003091F2027091F6021091F7020091F802CF
:101E4000DE01119621E080E0ED91E450ED3008F0E4
:101E50004BC0F0E0E25DF04F0C944B16760F3B0F59
:101E6000680F740F740F740F740F700F6E0F6C0F78
:101E70006A0F740F720F182F8F5F883029F7009345
:101E8000F8021093F7027093F6026093F5025093F4
:101E9000F4024093F3023093F2029093F102209304
:101EA000F90281E001C0880F9A95EAF78093F00269
:101EB00068E771E082EE92E028960FB6F894DEBFF4
:101EC0000FBECDBFDF91CF911F910F910C945006A3
:101ED000782FD2CF682FD0CF582FCECF482FCCCF4E
:101EE000382FCACF982FC8CF20E0C6CF082FC4CF35
:101EF000CF93DF93CDB7DEB762970FB6F894DEBF0E
:101F00000FBECDBF8091F20080618EBB80E88093D0
:101F1000F2009EB39093F2008093610091E0909361
:101F200061008093610010926100789484B58260B2
:101F300084BD84B5816084BD85B5826085BD85B56D
:101F4000816085BD80916E00816080936E001092EB
:101F50008100809181008260809381008091810066
:101F600081608093810080918000816080938000F7
:101F70008091B10084608093B1008091B000816055
:101F80008093B00080919100826080939100809155
:101F90009100816080939100809190008160809396
:101FA000900080917A00846080937A0080917A001A
:101FB000826080937A0080917A00816080937A00B9
:101FC00080917A00806880937A001092C100E0913D
:101FD0005502F091560282E08083E0915102F09127
:101FE00052029083E0915302F091540280EA808380
:101FF00010925D02E0915902F0915A0286E08083CE
:10200000E0915702F0915802808180618083E091D5
:102010005702F0915802808188608083E0915702D6
:10202000F0915802808180688083E0915702F0919E
:10203000580280818F7D808382E390E0A0E0B0E051
:102040008093490290934A02A0934B02B0934C02B2
:1020500060E570E082EE92E00E94820501E078E99E
:10206000F72EE5E4EE2E1092A6011092A501109233
:1020700016021092380280917E008F7C80937E0041
:1020800010921402009313021092EE0161E082E1BB
:102090000E94F00161E083E10E94F0018091B900AB
:1020A0008E7F8093B9008091B9008D7F8093B900B5
:1020B000F092B800E092BC00F092B8008091F90272
:1020C000882309F4F7C18091FA02009315028093E6
:1020D000370210921602109238020E94B800182F90
:1020E0008111E8C160E088EE92E00E94C80380E1BF
:1020F0008093EE0284E08093EF021092FB0264EF83
:1021000071E080E090E00E94400224E040E360E261
:1021100088EE92E00E94320465E070E080E090E09A
:102120000E94400224E040E360E288EE92E00E94D8
:1021300032048BEA94E00197F1F724E040E360E297
:1021400088EE92E00E94320483E592E00197F1F775
:1021500024E040E260E288EE92E00E943204809146
:10216000EF02823008F018E09091FB02943021F4E5
:102170001460813009F014E0412F406228E060E2F1
:1021800088EE92E00E9432041092EC0228E048E0CF
:1021900060E288EE92E00E9432040E94C00482E075
:1021A0008093ED0228E046E060E288EE92E00E9433
:1021B00032044091EC02842F84608093EC024C60E6
:1021C00028E060E288EE92E00E94320461E082E062
:1021D0000E9494048FE890E00E94D50462E081E0C0
:1021E0000E94940480E890E00E94D50468EB7BE0B4
:1021F00080E090E00E94400290E080E00E94B10008
:1022000090E00E942A0784E090E00E94B10090E0F4
:102210000E94920881E090E00E94B10090E00E944C
:10222000870782E090E00E94B10090E00E943908A8
:1022300083E090E00E94B10090E00E94E0078AE015
:1022400090E00E94B100182F8BE090E00E94B10056
:1022500090E024E6129F800D911D11248F3F91057F
:1022600009F014F40E94480A8CE090E00E94B1004A
:10227000182F8DE090E00E94B10090E0E4E61E9FF0
:10228000800D911D11248D32F1E09F0714F40E94FE
:10229000D5098EE090E00E94B100182F8FE090E009
:1022A0000E94B10090E024E6129F800D911D112440
:1022B0008D32E1E09E0714F40E946C0966E771E03C
:1022C000CE0101960E945006BE016F5F7F4F85E4EC
:1022D00092E00E947402CE0101960E9442056EE3D4
:1022E00071E0CE0101960E945006BE016F5F7F4FE4
:1022F00085E492E00E947402CE0101960E9442059C
:10230000E4ECF0E02491E9EAF0E084918823C9F05C
:1023100090E0880F991FFC01EC58FF4F45915491B4
:10232000FC01E556FF4FA591B4919FB7F894FA01CF
:1023300080812095822380838C91E22FE823EC9387
:102340009FBF60E082E00E94F00186ED98E09093EC
:10235000010180930001809169008C7F81608093EE
:102360006900E89A40E0442E40E0542E66246394CD
:10237000712C34E6332E8FB7F894C090EA01D090D8
:10238000EB01E090EC01F090ED018FBF80919A019C
:1023900090919B0140919C0150919D0160919E0103
:1023A00070919F0146015701841A950AA60AB70A3F
:1023B000389EA001399E500D1124052E000C660B8D
:1023C000770B209106013091070184169506A60629
:1023D000B70608F48EC0181619060CF08AC0C09211
:1023E0009C01D0929D01E0929E01F0929F01232BCF
:1023F00009F078C070920701609206010E94E00324
:102400008091060190910701019721F58091980133
:102410009091990118161906ECF48091940190910D
:102420009501A0919601B0919701C816D906EA06C8
:10243000FB0680F0892B8A2B8B2B61F01092050113
:10244000109204011092940110929501109296013D
:102450001092970185E492E00E942003892B09F4F1
:1024600033C368E771E0CE0101960E9450060E94D6
:10247000D20297FD80C08A30910509F47CC08F8319
:1024800018860D811E810F5F1F4FB801CE01019686
:102490000E948205882359F329813A818D819E818A
:1024A000BE01695F7F4F820F931F0E9460181E83D9
:1024B0000D83DDCF61E471E0CE0101960E945006EC
:1024C000BE016F5F7F4F85E492E00E947402CE01EF
:1024D00001960E94420560E177E280E090E00E9470
:1024E0004002C1CD10920701109206010E94FB0329
:1024F00087CF892B09F084CF009104011091050149
:102500000217130709F47CCF01301105C1F40E94B2
:10251000FB0310930701009306016FE571E0CE0104
:1025200001960E945006BE016F5F7F4F85E492E0E6
:102530000E947402CE0101960E94420561CF0E9462
:10254000E003109207011092060162E671E0CE01ED
:1025500001960E945006BE016F5F7F4F85E492E0B6
:102560000E947402CE0101960E944205109205015C
:102570001092040145CFCE0101960E94F304CE01D2
:1025800001960E9442052091E6023091E702211552
:10259000310509F45FCFA9014150510962EE72E0A3
:1025A000CE0101960E9461068D819E81892B21F0CA
:1025B000E981FA81309721F410929301E3E9F1E087
:1025C0008081082E000C990B0E94D5158C01CE013C
:1025D00001960E944205012BB1F02091E602309154
:1025E000E7022150310950E040E062EE72E0CE0196
:1025F00001960E946106CE0101960E94F304CE016D
:1026000001960E94420569E771E0CE0101960E94A1
:1026100050064D815E818091E6029091E702841719
:10262000950780F08091E2029091E302009751F0CB
:1026300069817A816115710529F00E94671811E09E
:10264000892B09F010E0CE0101960E94420511236A
:1026500009F42BC26BE771E0CE0101960E9450068F
:102660008091E6029091E7022D813E818C01021B50
:10267000130B2115310551F1009741F18217930792
:1026800028F10817190718F08C0101501109C090A2
:10269000E202D090E302A980BA80C601EE24EA9457
:1026A000FE2C4601800E911E8816990690F0B50109
:1026B0000E947518009769F09C012C193D090217BA
:1026C000130708F4970101967901EECFEE24EA94FE
:1026D000FE2CCE0101960E9442051E141F040CF030
:1026E000D4C1970141E050E062EE72E0CE010D9658
:1026F0000E9461066DE771E0CE0101960E945006CE
:10270000BE016F5F7F4FCE010D960E9447058C0181
:10271000CE0101960E9442050F3F1F4F99F00E9483
:10272000C0046FE771E0CE0101960E945006BE0121
:102730006F5F7F4F85E492E00E947402CE010196A4
:102740000E94420562E871E0CE0101960E945006A7
:10275000BE01635F7F4FCE0107960E94360601E0FF
:1027600010E024E030E04FEF5FEFBE016F5F7F4F7E
:10277000CE0107960E945A0B5C01CE0107960E947B
:102780004205CE0101960E94420561E771E0CE014B
:1027900001960E945006BE01635F7F4FCE010796EF
:1027A0000E94360620E130E04FEF5FEFBE016F5F21
:1027B0007F4FCE0107960E945A0B6C01CE010796FF
:1027C0000E944205CE0101960E94420564E871E034
:1027D000CE0101960E945006BE01635F7F4FCE017D
:1027E00007960E94360610E000E022E030E04EEF4F
:1027F0005FEFBE016F5F7F4FCE0107960E945A0BBD
:102800008C01CE0107960E944205CE0101960E94DE
:1028100042050130110509F030C110930501009304
:1028200004016FE671E0CE0101960E945006BE01E0
:10283000635F7F4FCE0107960E94360610E000E0EE
:1028400020E031E04EEF5FEFBE016F5F7F4FCE01C2
:1028500007960E945A0B8F3F910509F010F40E94D1
:10286000480ACE0107960E944205CE0101960E94B9
:1028700042056DE671E0CE0101960E945006BE0150
:10288000635F7F4FCE0107960E94360610E000E09E
:102890002DE231E04EEF5FEFBE016F5F7F4FCE0163
:1028A00007960E945A0B8D3221E0920710F40E9485
:1028B000D509CE0107960E944205CE0101960E94DD
:1028C00042056BE671E0CE0101960E945006BE0102
:1028D000635F7F4FCE0107960E94360610E000E04E
:1028E0002DE231E04EEF5FEFBE016F5F7F4FCE0113
:1028F00007960E945A0B8D32E1E09E0710F40E9469
:102900006C09CE0107960E944205CE0101960E94F5
:10291000420566E871E0CE0101960E945006BE01B4
:10292000635F7F4FCE0107960E94360610E000E0FD
:1029300022E030E04EEF5FEFBE016F5F7F4FCE01D0
:1029400007960E945A0B0E94E007CE0107960E944C
:102950004205CE0101960E94420568E871E0CE0171
:1029600001960E945006BE01635F7F4FCE0107961D
:102970000E94360622E030E04EEF5FEFBE016F5F4F
:102980007F4FCE0107960E945A0B0E943908CE0154
:1029900007960E944205CE0101960E9442056AE810
:1029A00071E0CE0101960E945006BE01635F7F4F29
:1029B000CE0107960E94360622E030E04EEF5FEF30
:1029C000BE016F5F7F4FCE0107960E945A0B0E9497
:1029D0008707CE0107960E944205CE0101960E940C
:1029E00042056CE871E0CE0101960E945006BE01DE
:1029F000635F7F4FCE0107960E94360622E030E0EB
:102A00004EEF5FEFBE016F5F7F4FCE0107960E94D2
:102A10005A0B0E942A07CE0107960E944205CE015A
:102A200001960E9442052091E6023091E702A7013B
:102A30004F5F5F4F62EE72E0CE0101960E94610629
:102A4000CE0101960E94F304CE0101960E94420538
:102A500062EE72E0CE0101960E943606A501B60133
:102A6000CE0101960E94B606CE0101960E94420553
:102A7000CE010D960E944205EDCC012B09F0D1CE7E
:102A80001092050110920401CCCE6EE871E0CE01E7
:102A900001960E945006BE016F5F7F4F85E492E071
:102AA0000E947402CE010196E5CF62EE72E0CE0183
:102AB00001960E9436064FEF5FEF6FEF7FEFCE017A
:102AC00001960E94B606EECF4114510409F453CC8E
:102AD0000E942C03882309F44CCC0E94000049CCAE
:102AE00082EE92E00C9442051F93FC0199278827FF
:102AF000BC01E89411911032E9F3193010F01E3046
:102B0000C8F31B3251F01D3249F4689406C00E948C
:102B1000A615610F711D811D911D119110531A3061
:102B2000B0F33EF490958095709561957F4F8F4FEF
:102B30009F4F1F910895BB274A3031F4992322F407
:102B4000BDE2909581959F4F0C94BC15592F482F4D
:102B5000372F262F660F771F881F991F660F771F45
:102B6000881F991F620F731F841F951F660F771FA1
:102B7000881F991F0895BB27FB015527AA27880F97
:102B8000991FAA1FA41710F0A41B83955051B9F7E1
:102B9000A05DAA3308F0A95DA193009779F7B11160
:102BA000B1931192CB010C94DE1591110C94EE159A
:102BB000803219F089508550C8F70895DC01FC0176
:102BC000672F71917723E1F7329704C07C916D9361
:102BD00070836291AE17BF07C8F3089599278827BD
:102BE00008952F923F924F925F926F927F928F92B1
:102BF0009F92AF92BF92CF92DF92EF92FF920F938C
:102C00001F93CF93DF93CDB7DEB7CA1BDB0B0FB695
:102C1000F894DEBF0FBECDBF09942A883988488852
:102C20005F846E847D848C849B84AA84B984C884E8
:102C3000DF80EE80FD800C811B81AA81B981CE0FDF
:102C4000D11D0FB6F894DEBF0FBECDBFED010895C4
:102C5000A29FB001B39FC001A39F700D811D1124DD
:102C6000911DB29F700D811D1124911D089597FB38
:102C7000072E16F4009407D077FD09D00E9458164D
:102C800007FC05D03EF4909581959F4F089570956F
:102C900061957F4F0895EE0FFF1F0590F491E02D91
:102CA00009940E942816B7FF0895821B930B08957C
:102CB000AA1BBB1B51E107C0AA1FBB1FA617B70762
:102CC00010F0A61BB70B881F991F5A95A9F780957E
:102CD0009095BC01CD0108950F931F93CF93DF937F
:102CE0008230910510F482E090E0E091FF02F091D3
:102CF000000330E020E0B0E0A0E0309799F4211527
:102D0000310509F44AC0281B390B24303105D8F5A8
:102D10008A819B816115710589F1FB01938382830F
:102D2000FE0111C04081518102811381481759076A
:102D3000E0F04817590799F4109761F012960C9338
:102D4000129713961C933296CF01DF91CF911F916A
:102D50000F9108950093FF0210930003F4CF211503
:102D6000310551F04217530738F0A901DB019A01F0
:102D7000BD01DF01F801C1CFEF01F9CF909300034E
:102D80008093FF02CDCFFE01E20FF31F8193919359
:102D90002250310939832883D7CF2091FD02309109
:102DA000FE02232B41F420910A0130910B01309354
:102DB000FE022093FD0220910801309109012115A6
:102DC000310541F42DB73EB740910C0150910D01F2
:102DD000241B350BE091FD02F091FE02E217F30790
:102DE000A0F42E1B3F0B2817390778F0AC014E5F7B
:102DF0005F4F2417350748F04E0F5F1F5093FE02B8
:102E00004093FD02819391939FCFF0E0E0E09CCF4F
:102E1000CF93DF930097E9F0FC013297138212827F
:102E2000A091FF02B0910003ED0130E020E0109787
:102E3000A1F420813181820F931F2091FD023091F6
:102E4000FE022817390709F061C0F093FE02E093F3
:102E5000FD02DF91CF910895EA01CE17DF07E8F573
:102E60004A815B819E0141155105B1F7E901FB8360
:102E7000EA8349915991C40FD51FEC17FD0761F4FE
:102E8000808191810296840F951FE901998388833F
:102E9000828193819B838A83F0E0E0E012968D919A
:102EA0009C9113970097B9F52D913C911197CD0105
:102EB0000296820F931F2091FD023091FE02281787
:102EC000390739F6309751F5109200031092FF023E
:102ED000B093FE02A093FD02BCCFD383C283408196
:102EE0005181840F951FC817D90761F44E5F5F4F5A
:102EF00088819981480F591F518340838A819B8122
:102F0000938382832115310509F0B0CFF09300033C
:102F1000E093FF029ECFFD01DC01C0CF138212823D
:102F2000D7CFB0E0A0E0E7E9F7E10C94F3158C010E
:102F3000009751F4CB010E946C168C01C801CDB7EB
:102F4000DEB7E0E10C940F16FC01E60FF71F9C01C1
:102F500022503109E217F30708F49DC0D901CD9141
:102F6000DC911197C617D70798F0C530D10530F31B
:102F7000CE0104978617970708F3C61BD70B229735
:102F8000C193D1936D937C93CF010E940817D6CF44
:102F90005B01AC1ABD0A4C018C0E9D1EA091FF0274
:102FA000B0910003512C412CF12CE12C109731F5FC
:102FB0008091FD029091FE028815990509F05CC090
:102FC0004616570608F058C08091080190910901F3
:102FD000009741F48DB79EB740910C0150910D01BF
:102FE000841B950BE817F90708F055C0F093FE0213
:102FF000E093FD02F90171836083A0CF8D919C91D4
:10300000119712966C90129713967C901397A815AF
:10301000B90559F56C0142E0C40ED11CCA14DB0499
:1030200020F1AC014A195B09DA011296159780F07C
:103030006282738251834083D9016D937C93E11442
:10304000F10471F0D7011396FC93EE93129776CFAB
:1030500022968C0F9D1FF90191838083F301EFCF9E
:10306000F0930003E093FF0269CF4816590608F475
:103070002C017D01D3019ACFCB010E946C167C01FB
:10308000009749F0AE01B8010E944E18C8010E9495
:103090000817870153CF10E000E050CFFB01DC019F
:1030A00002C001900D9241505040D8F70895FB01A5
:1030B000DC018D91019080190110D9F3990B0895CD
:1030C000FB01DC0101900D920020E1F70895FB0166
:1030D000DC014150504030F08D910190801919F47D
:1030E0000020B9F7881B990B0895FB0151915523D6
:1030F000A9F0BF01DC014D9145174111E1F759F4E9
:10310000CD010190002049F04D9140154111C9F3C6
:10311000FB014111EFCF81E090E00197089510E0AD
:10312000CBE7D0E004C0FE010E944B162196CC37BD
:08313000D107C9F7F894FFCFA5
:1031380073027302FEFFFFFF00000103800000001E
:10314800000084015701F0043201500141013301AC
:103158000000000061038202AF02A8032003BE0240
:10316800120300000000CD048202F00472026D31E7
:10317800006530006D30006431006430007131004A
:103188007130007331007330007731007730006C94
:1031980031006C30006B31006B30007000610062F0
:1031A8000063006531006330005B005D00780063F8
:1031B800310072006C0073007700710064006532A2
:0231C800000005
:00000001FF
