:020000040000FA
:060000000216C4020A19F9
:03001300020A3BA3
:03002B0002145567
:03003300020C6359
:03003B00020A9026
:0300530002094E51
:03005B000211C7C8
:030063000211E89F
:03006B00020C097B
:03007B00020C3A3A
:100083000209AD010020FD0002012C050000000162
:10009300AE1CC01C0000C61CCC1C00000000D21CFF
:1000A300F01CF61CFC1C0000000000000000010115
:1000B3000204081020408001FFFF090D0101040123
:1000C300FEFF0000000000000006FFFFFFFFFFFF30
:1000D300FF0101010400D019000000E8030000FF44
:1000E300FF9C1AE803000064006400B801A0BB0D84
:1000F30000A0BB0D00020200F8FF0705021E040169
:10010300051E02051E020A0A010108080103102741
:1001130002803E0102FEFFE8030A050001FFFF0122
:100123000A1401E0C503423F1A51123FF304B53FDD
:100133000000803E010105030101FF0F10FEFFEDEA
:100143003B000000005F3A00000000FF000000FFDA
:1001530000C082C083E9FA5407F8749628F582E454
:10016300341DF583E0F87900EAC4540F54036008A2
:1001730014600914600D8012E5808002E5905870C8
:10018300078007E5A0586002790102025BC082C0C4
:10019300831202ED600814601214601C802BEA6065
:1001A30005EB42808023E85280801EEA6005EB4223
:1001B300908016E852908011EBC39420500BEA60B4
:1001C30005EB42A08003E852A002025BC082C08319
:1001D3001202ED600814602C146050807BE852F327
:1001E30074016A601274026A601574046A7003EB26
:1001F300428FEB42FD806153F7DFE8528F80F34378
:10020300F72080F6E852F474016A601274026A609F
:100213001574046A7003EB42F6EB42FE803A53F71F
:10022300BFE852F680F343F74080F6EBC3942050C7
:1002330027E852F574016A601274026A6015740447
:100243006A7003EB42F7EB42FF800D53F77FE852EE
:10025300F780F343F78080F6D083D08222C082C038
:10026300831202ED600814602B14604E806CE85218
:10027300F352FD74016A600F74026A600F74046ABA
:100283007058EB428F805353F7DF800343F720E826
:10029300528F8046E852F452FE74016A600F740272
:1002A3006A600F74046A7032EB42F6802D53F7BF15
:1002B300800343F740E852F68020EBC39420501AA2
:1002C300E844E0F852F552FF74016A601074026A60
:1002D300601374046A7003EB42F702025B53F77F07
:1002E300E852F780F543F78080F6E95407FC7496EB
:1002F3002CF582E4341DF583E0FBF4F8E9C4540FD4
:10030300540322C082C0831202ED600814601214E9
:10031300601C802DEA6005EB42FD8025E852FD80DC
:1003230020EA6005EB42FE8018E852FE8013EBC31F
:100333009420500DEA6005EB42FF800574E04852BB
:10034300FF02025BC082C0831202ED6008146015D5
:100353001460228034EA6005EB42808003E8528017
:10036300EB42FD8024EA6005EB42908003E8529063
:10037300EB42FE8014EBC39420500EEA6005EB427F
:10038300A08003E852A0EB42FF02025BE9C4540FD2
:1003930054036007146013146020227801E8F4FB0F
:1003A300EA602014602114601522740F59C3940469
:1003B3005004780280E7780480E3780880DFE58CD6
:1003C300586004EB528C22E8428C221216D4601D32
:1003D3001216E37005191919801A121565701F1288
:1003E300153DC37003E66733191919400718181828
:1003F3002208080874FFF618F618F618F6221215E4
:100403003D6017121789702192F0121792701950DC
:100413001720F014080808090909E7F61819E7F680
:100423001819E7F61819E7F62212179260E6E86939
:10043300701F0808E62480F608E436F618547FB4E3
:100443007F0CE654806007F6E418F618F6221818B5
:1004530022E9C6CC08C6CD08C6CE08C6CFC0E0E8A0
:10046300C0E0EAC0E0EBC0E009E9F809E7FA09E710
:10047300FBE6F918E6F8C3EC98ED99EE9AEBC2E7C0
:10048300F5F0EFC2E795F0500E600CEBCFFBEACE30
:10049300FAE9CDF9E8CCF8EAA2E7D2E7FAEB33FBC5
:1004A30013F5F0EEA2E7D2E7FEEF33FFC5F013A298
:1004B300E730E601B313C5F0C3C0E0C0F07F00C36B
:1004C3009BFB605E9418600F401D14601AD0E023FC
:1004D300F9D0E0F80205AF8AF0E9486003D2F0E40E
:1004E300AFF0FAF9F8803BEB30E40D89F0EA6003F2
:1004F300D2F0E4AFF0F9CAF8EB30E30D88F0EF6027
:1005030002D2F0AFF0E4CAC9F8EB54076014FBC39E
:10051300EA13FAE913F9E813F8EF135002D2E0FFF4
:10052300DBEDD0E0C0E030E739C3E49FFFF5F0EC4A
:1005330098FC42F0ED99FD42F0EE9AFE42F0D0E0D5
:10054300F9D0E0F8E5F0607AE923F9EE20E742D844
:10055300028067C3EF33FFEC33FCED33FDEE33FE74
:1005630080EAEC28FCED39FDEE3AFED0E023F9D029
:10057300E0F84002801BC3EE13FEED13FDEC13FC09
:10058300EF135002D2E0FF08B800067F7F74FF80AC
:100593002EEF3350178CF020F00260100CBC000CCF
:1005A3000DBD00080EBE000408E860DFE933E81360
:1005B300FFEE2313FE4F4D4C8008E95480FFE4FE09
:1005C300FDFCEE33EF33F47004FCFD7E80D0E0FBE2
:1005D300D0E0FAD0E0F8D0E0CFC618CEC618CDC62A
:1005E30018CCC6F9221216D4700418181822121641
:1005F300E3700D74FFF61819F61819F61819F62298
:10060300E7548066F6121792700F12178970F01470
:10061300F608F608F608F680D1121789700CF6086A
:10062300F608768008E6447F80EC121540700C12C1
:10063300156860BFE65480F6E480BB121568700548
:1006430019191980A5E869700C763F18768018F699
:1006530018F6E8F922E6CDC0E018ECC0E0E633CDA9
:1006630033CDD313F6E719FCE7191933CC33C3940D
:100673007F400ECD9D502408E65480F6E418F680A2
:100683000FF4043D14501408E6447FF6187680E412
:1006930018F618F6D0E0FCD0E0FD22CCD313CCFD45
:1006A30018E4C6CBC0E018E4C6CAC0E00808ED08E9
:1006B300C633E613F618E433C675F003C3CA97CA04
:1006C30009CB97CB199C40047D08802EBD00030203
:1006D300079116B6FF050606081618C3CA33CACB18
:1006E30033CB33CA27CA09CB37CB193CC37D088028
:1006F3003E187D0820E75CC633C6CA33CACB33CB6A
:1007030033DDF1D5F0EB30E77BCA97CA09CB974AC3
:10071300CB199C406F4B7025E620E0218066187D45
:1007230008C3CA97CA09CB97CB199CD3C633C6CA89
:1007330033CACB33CB3350C9DDE7D5F0E1D3E4C6BD
:1007430036C608C636C608C636C608C636C618181C
:10075300188031C3CA97CA09CB97CB199CB340976A
:10076300C633C6CA33CACB33CB33DD34D5F02EC63A
:10077300A2E0C640C8CA27CA09CB37194A70BECB04
:100783003CB480B90808E63308E633601F1818182C
:10079300D0E0FAD0E0FBD0E0FCD0E0FD22187D08E9
:1007A300CA27CA09CB37CB193CD3808013F618E488
:1007B300B67F11F618B6FF0EF618C60470D20808F5
:1007C300768080CAF618F618F680C5001216D46033
:1007D3004F1216E36012E7548066F6121565701126
:1007E300121789703B090909F4F618F618F618F67A
:1007F3002212153D701512179208080860EAE644A4
:100803007FF618768018E4F618F62212179260160F
:100813001217897012E4F608F608F608E65480F613
:1008230009090918181822EAC0E0EBC0E0ECC0E09F
:10083300EDC0E0E687F0A4FBACF008E687F0A42C5B
:10084300FCE435F0FA1809E687F0A42C4B60027437
:1008530001CA35F0FCE433FB09E687F0D2F7A42C98
:10086300CB35F0FC1908E687F0A42BCC35F0FBE47C
:1008730033FD0819E687F0D2E7A42C4ACB35F0CD37
:100883003400FC09E687F0D2E7A42DCC35F0FDE473
:1008930033FA0918E687F0D2F7A42CCD35F0CA3421
:1008A30000FC08E687F0D2E7D2F7A42ACC35F07A29
:1008B3007E20E70B0ACB33CBCD33CDCC33CC33CB3C
:1008C3003350147004ED30E00ED2F1E4CD3DCDCCC5
:1008D3003CCC3B5005DA05C2F1EB547FC63308E646
:1008E3003392F0FBE73309E733C39A502D2B70198A
:1008F3000C0D4C4D70151806E608C333700D20F12E
:100903000AA2F013F6E418800B4024E4F630F00258
:10091300768018F618F618F68024D33B145010741A
:10092300FFA2F013F6187680E418F618F6800FA2EB
:10093300F013F618E63303F618ECF618EDF6D0E0EC
:10094300FDD0E0FCD0E0FBD0E0FA22C0E074F1126D
:100953000E5FA2AFE433F509D2AF85A708AFA1EFCD
:100963005508FE74105E60061219A875A1EF74088D
:100973005E60081219AE75A1F78024EFA2E092F031
:10098300E508A2E082F05017906198E0F890049C8B
:10099300E0C398A2D265D0335002E8F075A1FEE51A
:1009A30009A2E092AF7F02020EBEC0E074F2120E03
:1009B3005FA2AFE433FED2AF9061A4E0F8759B0071
:1009C300E59158540860087591F71219F68023E5EC
:1009D3009158541060087591EF1219FC8014E59139
:1009E300A2E092F0E8A2E082F05007E0C2E0F01249
:1009F3001B469061A3E0F8E5E9585404600E121B0E
:100A03001C75E9FB906193E0A2E640F2EEA2E0924E
:100A1300AF7F01020EBEC0E074F2120E5FA2AFE41C
:100A230033FED2AF9061A5E0F8E5BF5854046006E9
:100A330075BFFB121B5E80D4C0E0C0D0E8C0E0E904
:100A4300C0E0C082C083A8C1E8C0E0900409E0F818
:100A5300748828F582E43403F583D0E0F090040829
:100A6300E0F8A3E0687006E59590040BF0900409A4
:100A7300E004F0C394804002E4F0A374C6F0D08392
:100A8300D082D0E0F9D0E0F8D0D0D0E032C0E0C0DE
:100A9300D0E8C0E0E9C0E0C082C08390048CE0F8F5
:100AA300A3E0687008539AFBA374018022C2E99003
:100AB300048CE0F8740128F0740C28F582E4340403
:100AC300F583E0F5C190048CE0C394804002E4F028
:100AD30080AC120B2030F039120B658034120B20DE
:100AE30020F01430E72B74FFFCFBFA747F8022E4C0
:100AF300FCFBFA7480801AB48008BC00F2BB00EFE0
:100B0300800F50EBF9E4C39AFAE49BFBE49CFCE40A
:100B130099C6CC18C6CB18C6CA18C6F922E4C9C6EA
:100B230008CAC608CBC6D3330308CCC63392F0C376
:100B3300947F402E94184019C9B90704CACBCC221C
:100B43005025C309CA33CACB33CBCC33CC33D9F406
:100B530022F4600DC9CCC313CB13CBCA13CAD9F685
:100B6300CC22E4FCFBFA2214FCFBFA22C3E498F83F
:100B7300E499F9120BB08026C3E49AFAE49BFBE9EB
:100B830020E7E9120BB0E498F8E499F922C3E4985A
:100B9300F8E499F9120BB0E498F8E499F9C3E49AEC
:100BA300FAE49BFB22EB20E7CFE920E7E0B9001052
:100BB300BB0008E88AF084F8AAF022E4FBC8FA2212
:100BC300EB70227B10C833C8C933C9335007C39AAB
:100BD300C3DBF280069A50012ADBEAC833F4C8C9A2
:100BE30033F4C9FA2275F008E4C833C8C933C933EA
:100BF300C99AC99B5004C92AC93BD5F0ECFBC83339
:100C0300F4C8E4C9FA22C0E074F2120E5FA2AFE4A2
:100C130033FED2AF90062FE05589600FE589FA794C
:100C230000121E1090062FE0F45289C2C5EEA2E016
:100C330092AF7F01020EBEC0E074F2120E5FA2AF4C
:100C4300E433FED2AF900630E0558A600FE58AFAAE
:100C53007901121E10900630E0F4528AC2EB80CD67
:100C6300C0E074F2120E5FA2AFE433FED2AF90067F
:100C730031E0558B600FE58BFA7902121E10900656
:100C830031E0F4528BC2E880A4080808EAC0E0EB24
:100C9300C0E086F0E7A4FA180986F0E7A42AFA1858
:100CA3000986F0E7A42AFA180986F0E7A42AFA19B4
:100CB30086F0E7A4FBE5F02AFA190886F0E7A42BEF
:100CC300FBE5F03AFA190886F0E7A42BFBE5F03AC6
:100CD300FA18180986F0E7A4C5F02BFBE43AFA19D1
:100CE30008E7C5F0C6A426F6E5F03BFBE43AFA189C
:100CF30086F0E7A4F6E5F00826F6E43B08F6E43AC6
:100D030008F6D0E0FBD0E0FA22080808E630E71145
:100D13001215A1120D24080808C64480C618181815
:100D230022181818E9799EC608CAC608CBC608CC8B
:100D3300C6C370207996CACBCC7019798ECBCC7090
:100D4300137986CC700EF9802ACA33CACB33CBCC45
:100D530033CC331930E7F2CCCBCA3350147004EAE6
:100D630030E00DE4CA3ACACB3BCBCC3CCC500209B1
:100D7300C3E913C6CC182313C6CB18C6CA18C6F9C1
:100D830022E4CFC0E0E4CEC0E0E4CDC0E0E4CCC0D8
:100D9300E075F020E626F608E633F608E633F608B3
:100DA300E633F6181818EC33FCED33FDEE33FEEFA3
:100DB30033FFC3EC9709ED9709EE9709EF971919DC
:100DC30019400FFFEC97FC09ED97FD09EE97FE190B
:100DD3001906D5F0BFECF709EDF709EEF709EFF7C0
:100DE300191919D0E0FCD0E0FDD0E0FED0E0FF22DD
:100DF3002518C582C0E0E51934FFC583C0E0E518B6
:100E0300C3958224F810AF0885831985821880085A
:100E1300858319858218D2AFCEF0A3E520F0A3789D
:100E230008E608F0A3DEFAEFF0A3E58124FAF8E67A
:100E330008F0A3E608F0A3E608F0A30808E608F024
:100E4300A3E608F0A315811581D0E0FED0E0F815E4
:100E53008115811581E8C0E0EEC0E022C0D02518DD
:100E6300C582C0E0E51934FFC583C0E0E518C3952A
:100E73008224F310AF08858319858218800885833F
:100E830019858218D2AFC8F0A3E9F0A3EAF0A3EB67
:100E9300F0A37908E709F0A3D8FAECF0A3EDF0A3E7
:100EA300EEF0A3EFF0A3D0E0F0A3D0E0F0A3D0E006
:100EB300F0A3E520F0A3E5F0F0A3228519838518BC
:100EC30082E0C0E0A3E0F9A3E0FAA3E0FBA3780883
:100ED300E0F608A3DFFAE0FCA3E0FDA3E0FEA3E055
:100EE300FFA3E0C0E0A3E0C0E0A3E0F5D0A3E0F5FA
:100EF30020A3E0A3F5F010AF08858319858218803D
:100F030008858319858218D2AFD082D083D0E0F8C8
:100F1300D0E0321215A4181818120D841216731982
:100F2300191922121673191919080808E61818183E
:100F330020E7E0120D841215A418181822090909D4
:100F4300E719191920E7DC080808E618181820E73C
:100F530003020D841215A4181818120D841215A477
:100F630018181812167319191922121774B90003D5
:100F7300020FACE4900331783A791B8002F0A3D8D6
:100F8300FCD9FA7A6A7B1D90008678CF79018015A7
:100F9300E493A3AD82AE838A828B83F0A3AA82AB50
:100FA300838D828E83D8E9D9E77582B77583C5743B
:100FB300071213CC7582CC75833774001213CCE4FB
:100FC3007375F0108E1A8F1B85821F85831E8518FB
:100FD30082851983E0CEA3E0CF851F82851E83EB34
:100FE300C9EAC8EDCBECCAC3E833C8E933C9EA336D
:100FF300CAEB33CBC3EA9EF51DEB9FF51CB350043C
:10100300AB1CAA1DEC33CCED33CDD5F0DAAE1AAF61
:101013001B221216D4601C1216E36017121792706B
:10102300071217897001D322C0D01217897006D016
:10103300D0B322C32233D0D0501430E0F6C3E796A6
:101043000809E7960809E7960809E796B32220E01E
:10105300D5E6970809E6970809E6970809E697B3DE
:1010630022D083D082ECC0E0EDC0E0E493A3FCE4A3
:1010730093A3FDED4C600D121188EC24FFFCED34BD
:10108300FFFD80EFE493A3FCE493A3FDED4C600D1F
:1010930012128FEC24FFFCED34FFFD80EFD0E0FD56
:1010A300D0E0FCE493A3C0E0E493C0E0221216D4A2
:1010B300601B1216E36016121792700712178960ED
:1010C3000CB322C0D01217897005D0D022C32233AB
:1010D300D0D0501330E0EBC3E7960809E796080930
:1010E300E7960809E7962220E0E4E6970809E697E1
:1010F3000809E6970809E69722D083D082E9C0E081
:10110300E493A3C386F0C5F095F0F908E493A386AE
:10111300F0C5F095F0700BE493A3C3994005E9047F
:101123008002A3E475F002A42582F582E5F03583FD
:10113300F583D0E0F9E493A3C0E0E493C0E0228513
:101143001983851882E0A3FEE0A3F5207808E0A3C5
:10115300F608DFFAE0A3FFE0A3C0E0E0A3C0E0E00D
:10116300A3C0E0E0A3C0E0E0A3C0E010AF08858225
:10117300188583198008858218858319D2AFD08397
:10118300D0820213D2C0E0C3E4939608740193960D
:1011930018400FE493667008087401936618700092
:1011A3007019A3A3C3E49396087401939618A3A399
:1011B300400DD0E0D0E0D0E00210A0A3A3A3A3A3EE
:1011C300A3D0E022C0E074F2120E5FC2D9901DB327
:1011D300E0C39400A2D265D0334005E0F912214C5C
:1011E3007F01020EBEC0E074F2120E5FC2DC901DDE
:1011F300B5E0F9C39400A2D265D033400312214C69
:1012030080DE7404800474028000CCC0E0EDC0E092
:10121300E518C39CCCAD1950011D10AF068C188D79
:101223001980068C188D19D2AF12134ED0E0FDD061
:10123300E0FC2274028000CCC0E0EDC0E0E518C3FE
:101243009CCCAD1950011D10AF068C188D1980066A
:101253008C188D19D2AF12130AD0E0FDD0E0FC2216
:101263001216D460251216E360201217927003023F
:101273001789080808E76670101819E766700A18D6
:1012830019E76670041819E76622F422C0E0C0F07B
:1012930088F0E4936670080874019366187000A8D8
:1012A300F0A3A3700BD0F0D0E0D0E0D0E00210A008
:1012B300A3A3D0F0D0E022D083D082CCC0E0E493CB
:1012C300A3600612136F1470FAE493A3600612145A
:1012D300D21470FAD0E0FCE493A3C0E0E493C0E03E
:1012E30022C008C3E096F50808A3E096420808A3C5
:1012F300E096420808A3E0964208A2D265D033E5FF
:10130300087001D3D00822CAC0E0E493A3C582CCFD
:10131300C582C583CDC583F0A3C582CCC582C583F1
:10132300CDC583DAE5D0E0CA22A2E792D65002F413
:101333000430F70663F0FF05F0B3400384800384B1
:10134300F40430D60563F0FF05F022CAC0E0E0A341
:10135300C582CCC582C583CDC583F0A3C582CCC568
:1013630082C583CDC583DAE6D0E0CA22C0E0E49328
:10137300A3D39C5010E493A3C39C400AD0E0D0E0D5
:10138300D0E00212D7A3A3A3D0E022700908080873
:10139300226016181818C6C333C608C633C608C653
:1013A30033C608C633C6D5E0EA22C008C3E096F5C3
:1013B3000808A3E096420808A3E096420808A3E0C1
:1013C3009645087001D3D00822C09FF59FE473D0DF
:1013D3009F22D083D082C09FE493C0E0740193C066
:1013E300E0740293F59F227404800A7403800674E8
:1013F3000280027401C0E0F404121420D0E012173A
:101403001F2200C0D0251810AF08F518500C05197D
:101413008008F51850020519D2AFD0D0222518F54F
:101423008210AF08F518400C15198008F518400212
:101433001519D2AF85198322BB0102E722C082C0EE
:101443008389828A83BB0003E08002E493D083D044
:101453008222C0E0C0D0E8C0E0A8A8D2AFC2C7E8EB
:10146300A2E792AFD0E0F8D0D0D0E03260170808FE
:1014730008C6A2E713C618C613C618C613C618C6ED
:1014830013C6D5E0E9226016080808C6C313C618B8
:10149300C613C618C613C618C613C6D5E0EA22C3B8
:1014A300E0C696F608A3E0C696F608A3E0C696F64D
:1014B30008A3E0C696F6222518F8E43519F9222583
:1014C30018FAE43519FB222518FCE43519FD22C06E
:1014D300E0E493A36C7009D0E0D0E0D0E00212D72F
:1014E300A3A3D0E022251810AF08F518400C151956
:1014F3008008F51840021519D2AF22E7667010086C
:1015030009E766700A0809E76670040809E76622B6
:10151300C3E09608A3E09608A3E09608A3E096A28A
:10152300D265D03322E066701008A3E066700A0823
:10153300A3E066700408A3E06622191919E70947B6
:10154300097009E727097005E733F4220922C3E08C
:1015530096F008A3E096F008A3E096F008A3E096BF
:10156300F022181818E60846087009E626087005E0
:10157300E633F4220822C3E4939608740193960891
:1015830074029396087403939622C3E697F60809A8
:10159300E697F60809E697F60809E697F62218187B
:1015A30018E4C396F608E496F608E496F608E4967B
:1015B300F622E056F008A3E056F008A3E056F00840
:1015C300A3E056F022E667F60809E667F60809E69F
:1015D30067F60809E667F622E493F608740193F6C2
:1015E30008740293F608740393F622E657F6080983
:1015F300E657F60809E657F60809E657F622E627FE
:10160300F60809E637F60809E637F60809E637F675
:1016130022E026F608A3E036F608A3E036F608A390
:10162300E036F622E026F008A3E036F008A3E03621
:10163300F008A3E036F022E647F60809E647F60885
:1016430009E647F60809E647F622700422600D18FA
:10165300C6C333C608C633C6D5E0F41822E056F62F
:1016630008A3E056F608A3E056F608A3E056F622D0
:10167300E4C397F709E497F709E497F709E497F7C1
:1016830022600D08C6A2E713C618C613C6D5E0F339
:1016930022C6F4C608C6F4C608C6F4C608C6F4C60D
:1016A30022C3E09608A3E09608A3E09608A3E09679
:1016B30022C3E7960809E7960809E7960809E7961B
:1016C3002275D00075813F75183175190300020F1B
:1016D3006DE6084608C3134608336002E633F42276
:1016E300E7094709C3134709336002E733F422606C
:1016F3000C08C6C313C618C613C6D5E0F422E6F019
:1017030008A3E6F008A3E6F008A3E6F022E0F60853
:10171300A3E0F608A3E0F608A3E0F622CAC0E0E6D9
:10172300F0A308DAFAD0E0FA22E0FCA3E0FDA3E09C
:10173300FEA3E0FF22EAF0A3EBF0A3ECF0A3EDF0AD
:1017430022E0FAA3E0FBA3E0FCA3E0FD22E8F0A380
:10175300E9F0A3EAF0A3EBF022ECF0A3EDF0A3EEA3
:10176300F0A3EFF022E0F8A3E0F9A3E0FAA3E0FB93
:1017730022E5C754F84401F5C77901222518F582FB
:10178300E43519F58322E72719471947194722E654
:101793002618461846184622C2AF75D69F02000087
:1017A300221213D5E5D4051213D5C7D7051213D5C5
:1017B30019D9051213D5CFD9051213D5CEDA0512CF
:1017C30013D501DC051213D567FD061213D5F3FDFE
:1017D300061213D535FF061213D5CFD7071213D52B
:1017E300E0D7071213D57ED8071213D589D807126D
:1017F30013D5F7FF011213D553DD071213D53CD9C7
:10180300071213D54CD9071213D561D9071213D573
:10181300C7D9071213D5CDD4071213D550D5071244
:1018230013D5B6D5071213D5B9C3071213D5F4C30D
:10183300071213D54FC4071213D5A7C4071213D524
:101843002DC5071213D569C5071213D540DD07123D
:1018530013D550DD071213D5DCA3071213D532A419
:10186300071213D581A4071213D5AEA4071213D5FB
:1018730004A5071213D5C87F001213D5DBBC0712CA
:1018830013D525BD071213D5BBBD071213D541BE12
:10189300071213D572BE071213D58ABE071213D5CA
:1018A300FEBE071213D514BF071213D527BF0712A5
:1018B30013D531BF071213D583F3031213D534F8AD
:1018C300031213D549F9031213D575F9031213D56E
:1018D300FAF9031213D5C1FC031213D53DF2051215
:1018E30013D5A0F2051213D550F3051213D51BF42B
:1018F300051213D570F5051213D550F6051213D53D
:101903004DF7051213D525F9051213D54CF9051218
:1019130013D5D8F9051213D532FB051213D5C5FB20
:10192300051213D5D7FB051213D5D6A5061213D569
:10193300A4A7061213D5CFA8061213D592AA06128E
:1019430013D51285071213D53E85071213D5AF871A
:10195300071213D5EF87071213D52F88071213D554
:101963004388071213D55C88071213D54D890712D4
:1019730013D5F289071213D5068A071213D5ADCDF5
:10198300071213D5D1CD071213D5EACD071213D5FC
:101993001CCE071213D54CCE071213D579CE0712DE
:1019A30013D5DBCE071213D5EACE071213D5F4CE27
:1019B300071213D501CF071213D545BA071213D552
:1019C30065BA071213D5A4BA071213D5BFBA071203
:1019D30013D5DEBA071213D544BB071213D54DBB7B
:1019E300071213D5AABB071213D5CEBB071213D503
:1019F3008FBC071213D59CBC071213D5ADBC0712BD
:101A030013D5D1D9071213D5E9D9071213D515DA8E
:101A1300071213D5A3FB041213D5FDFC041213D52F
:101A23000BFD041213D51EFD041213D533FD04124E
:101A330013D548FD041213D55BFD041213D5CFFD56
:101A4300041213D534FE041213D5D6FE041213D593
:101A53009AFF041213D5AAFF041213D5B9FF041277
:101A630013D55EFF011213D582FF011213D5AAFF0E
:101A7300011213D5D2FF011213D596C1071213D544
:101A8300BDC1071213D5DBC1071213D54EC207120E
:101A930013D572B7071213D58BB7071213D597B7A0
:101AA300071213D5ABB7071213D5C9B7071213D54E
:101AB300D3B7071213D5DDB7071213D5F0B7071243
:101AC30013D576B8071213D5EBB8071213D51AB985
:101AD300071213D568B9071213D5B7B9071213D56F
:101AE300D2B9071213D5DCB9071213D5EDB9071212
:101AF30013D530BA071213D58FDB071213D5C0895C
:101B0300061213D5EA89061213D5078A061213D5CE
:101B13001A8A061213D5308A061213D58E8A061234
:101B230013D5C68A061213D5BA8E061213D5FF8FA4
:101B3300061213D53290061213D59590061213D5BB
:101B4300FF91061213D52792061213D53C92061263
:101B530013D54C92061213D59092061213D5EB921D
:101B6300061213D5FB92061213D58DD1071213D586
:101B7300A7D1071213D5CFD1071213D5E8D1071276
:101B830013D50CD2071213D52AD2071213D541D27B
:101B9300071213D56FD2071213D58AD2071213D5A2
:101BA3001EDC071213D542FC051213D552FC051295
:101BB30013D559FD051213D58DFD051213D5AFFDB0
:101BC300051213D5D2FD051213D5F0FD051213D559
:101BD3002AFE051213D58FFE051213D5D1FE051269
:101BE30013D510FF051213D541FF051213D578FF46
:101BF300051213D59EF7021213D59AF8021213D5C4
:101C0300B8F8021213D5DFF8021213D5A9FA02129B
:101C130013D5D7FA021213D58CFB021213D54FFC3E
:101C2300021213D55EFD021213D599FE021213D5CB
:101C3300C997071213D51E98071213D59898071240
:101C430013D5AB98071213D5D298071213D56599FC
:101C5300071213D53F9A071213D58B9C061213D57F
:101C6300B69C061213D5819D061213D5BE9D06128E
:101C730013D54F9E061213D5CBA1061213D5DEA39F
:101C8300061213D58AD4041213D5CCD4041213D557
:101C9300CCD6041213D576D9041213D5B6DC0412AC
:101CA30013D52ADD041213D5C4DD041213D513DEB4
:101CB300041213D556DE041213D570DE041213D5A5
:101CC300C9DE041213D5F7DE041213D5FADE0412AB
:101CD30013D50ADF041213D51DDF041213D568DFF1
:101CE300041213D580E1041213D5B3E1041213D502
:101CF30018E2041213D56BE2041213D5F1E20412B5
:101D030013D57DE3041213D595E5041213D535E7F6
:101D1300041213D509E9041213D59AE9041213D551
:101D230075EB041213D5CFD6071213D5E9D60712D4
:101D330013D530D7071213D55ED7071213D578D72B
:101D4300071213D591D7071213D5B5D7071213D599
:101D5300F7EC061213D528ED061213D57CED061207
:101D630013D54CEE061213D579EE061213D5A6EE53
:101D7300061213D5F8EE061213D522EF061213D569
:101D830046EF061213D56EEF061213D5AEEF061209
:101D930013D538F0061213D569F0061213D590F057
:101DA300061213D5D6F0061213D5F4F0061213D586
:101DB30018F1061213D538F1061213D56EF1061277
:101DC30013D5CDF1061213D5EFF1061213D54EF24A
:101DD300061213D55DF2061213D596F2061213D529
:101DE3004FAD061213D589AD061213D5BBAE06123D
:101DF30013D5D3AF061213D586B4061213D540E11B
:101E0300061213D57AE1061213D521E2061213D571
:101E1300C6D3071213D537D4071213D599D4071293
:101E230013D51DE7061213D52AE8061213D53BE98D
:101E3300061213D58BEA061213D5E1EA061213D55F
:101E43001FEB061213D52DEB061213D5ECEC06127D
:101E530013D543AE071213D5A5AE071213D5A1B000
:101E6300071213D50080071213D54180071213D52B
:101E73007780071213D59E81071213D53A83071271
:101E830013D5E483071213D5F484071213D56BC259
:101E9300061213D5B3C2061213D5B8C3061213D54F
:101EA300D7C6061213D501C7061213D5DAC7061211
:101EB30013D5E1CA071213D51ECB071213D552CB84
:101EC300071213D565CB071213D5C2A7071213D573
:101ED300D5A8071213D596A9071213D541AA07123D
:101EE30013D56DAA071213D5E4AA071213D560DB25
:101EF300061213D5C2DB061213D570DC061213D5F6
:101F030096DD061213D568E0061213D57EE006129D
:101F130013D549CC071213D569CC071213D57DCD40
:101F2300071213D580CD071213D5B6FE031213D5AE
:101F3300ECFE031213D506FF031213D548FF031259
:101F430013D558FF031213D5F2FF031213D5ADB403
:101F5300061213D5B7B4061213D5F1B4061213D56E
:101F63005AB5061213D577B5061213D519B606124C
:101F730013D522B6061213D567B6061213D590B63B
:101F8300061213D59DB6061213D50EB7061213D536
:101F930099B7061213D5E7B7061213D525B806125B
:101FA30013D58AB8061213D5ADB8061213D524B9C2
:101FB300061213D57BB9061213D5B6B9061213D57B
:101FC300EBB9061213D5FDB9061213D50FBA0612D3
:101FD30013D52EBA061213D537BA061213D5F2BA91
:101FE300061213D53EBB061213D57CBB061213D5BE
:101FF3000BCF071213D54BD0071213D525DD0712CC
:1020030013D56BB1071213D5AFB1071213D5F7B1BF
:10201300071213D5DDB3071213D56CB4071213D50A
:1020230056DA071213D57795051213D59B96051229
:1020330013D5D596051213D57F98051213D5A998F4
:10204300051213D51E9B051213D55E9B051213D5DE
:10205300F49C051213D5919D051213D5E39D05122A
:1020630013D5869E051213D5BE9E051213D5009F68
:10207300051213D56FA0051213D5BDA1051213D5F3
:10208300EEA3051213D51CA4051213D543A4051200
:1020930013D54CA4051213D59CA4051213D52EA554
:1020A300051213D55DA8051213D5E0A8051213D5A3
:1020B300C8DC071213D5DEDC071213D5DC9B07122D
:1020C30013D5F29B071213D5969C071213D5D59CF3
:1020D300071213D5F29C071213D5239D071213D5AC
:1020E300709D071213D5A39D071213D5DE9D07120A
:1020F30013D5D39F071213D57BD5061213D5A1D7BA
:10210300061213D5D3D8061213D5EBD8061213D55E
:102113001A8A071213D55C8B071213D5F48C071296
:1021230013D5A8BB061213D5ACBC061213D5CEBD6E
:10213300061213D5E9BE061213D5BFBF061213D577
:1021430097C7071213D50DC8071213D5BFEC041296
:1021530013D584ED041213D591ED041213D53AEE81
:10216300041213D599EE041213D509F0041213D5F2
:1021730081F0041213D543F2041213D56FF2041243
:1021830013D57CF4041213D5A4F4041213D505F566
:10219300041213D560F5041213D5B1F6041213D546
:1021A30004F7041213D589F7041213D5A5F2061206
:1021B30013D5CCF2061213D520F5061213D547F525
:1021C300061213D59CF5061213D5CEF6061213D5B7
:1021D3004AF7061213D544BF071213D55CBF071283
:1021E30013D59DC0071213D5A4C0071213D5CFD59D
:1021F300071213D52ED6071213D56CD6071213D593
:10220300ADD6071213D531F2011213D59AF201128A
:1022130013D5E5F2011213D520F3011213D595F569
:10222300011213D5B1F9011213D5CDFB011213D548
:10223300DBFC011213D5B5FD011213D5EFC806124D
:1022430013D529C9061213D562CA061213D503CCB6
:10225300061213D530CC061213D5D3CC061213D5E0
:1022630036CD061213D56DCE061213D5A1D807129B
:1022730013D5EBD8071213D54ACF061213D5A7CF20
:10228300061213D585D0061213D570D1061213D5B5
:102293009CD1061213D579D2061213D5D7D20612C2
:1022A30013D588D3061213D511D4061213D5A4DC83
:1022B300071213D5B7DC071213D55CD0071213D559
:1022C3006BD0071213D5CBD0071213D5E8DC071256
:1022D30013D5EEDC071213D5F4DC071213D5A13E98
:1022E300001213D5AD3E001213D50F3F001213D5C4
:1022F300193F001213D5AC3F001213D5E83F00126B
:1023030013D5A840001213D5B540001213D51841B8
:10231300001213D5AD41001213D5E341001213D5BA
:102323006042001213D50044001213D5D4450012A5
:1023330013D5B546001213D5FF47001213D5614AD2
:10234300001213D5C64B001213D55B4C001213D5E4
:102353008E4D001213D5824E001213D5BB4F0012BF
:1023630013D55154001213D53E55001213D5D6552B
:10237300001213D5FB55001213D52756001213D59F
:10238300BF56001213D5D556001213D5F7560012B7
:1023930013D55D57001213D57C57001213D5A557DB
:1023A300001213D5C558001213D59B59001213D52B
:1023B300105B001213D5315B001213D5B25B001210
:1023C30013D5585C001213D5A05C001213D5115D10
:1023D300001213D59D5D001213D5015E001213D5B3
:1023E300615E001213D5105F001213D57C5F0012DB
:1023F30013D5AF5F001213D52D60001213D5896179
:10240300001213D5F961001213D58B62001213D594
:10241300EE63001213D57564001213D5DA6400124B
:1024230013D50867001213D59468001213D5A46856
:10243300001213D5D868001213D54669001213D5BC
:102443008169001213D5E369001213D5786A00126B
:1024530013D5536C001213D51E6E001213D5286FBB
:10246300001213D52573001213D5F273001213D57E
:102473000A75001213D5B476001213D5C9B7051225
:1024830013D580B8051213D587B9051213D505BA2C
:10249300051213D547BB051213D568BB051213D517
:1024A30020BC051213D5CBBC051213D5ABC0051246
:1024B30013D5C7C2051213D52EC4051213D5DADB03
:1024C300071213D5BDD6031213D518D7031213D58C
:1024D300A2D7031213D513D9031213D5EBD90312C1
:1024E30013D5D4DA031213D5EBDA031213D53DDB7C
:1024F300031213D5A1DB031213D5E2DB031213D5A9
:10250300F5DB031213D54BDC031213D5A4DC031242
:1025130013D5BCDC031213D56CDF031213D501E012
:10252300031213D52BE0031213D574E0031213D552
:1025330064E2031213D5CEE2031213D5A2E303120E
:1025430013D5E5E3031213D5FFE3031213D546E4D2
:10255300031213D566E4031213D510E5031213D542
:102563000EE6031213D568E6031213D5B9E6031278
:1025730013D5C4E7031213D568EA031213D595EAFA
:10258300031213D5FEEA031213D523EB031213D55B
:102593009DEB031213D566EC031213D5A3EC0312C0
:1025A30013D505ED031213D5C6ED031213D5C9EDEB
:1025B300031213D5D3ED031213D5DDED031213D597
:1025C300F0ED031213D56CEE031213D595EE03123F
:1025D30013D5A8EE031213D5D4EE031213D5FBEED5
:1025E300031213D51FEF031213D55AEF031213D59A
:1025F300CCEF031213D5F4EF031213D535F0031206
:1026030013D56AF0031213D58AF0031213D5C7F05A
:10261300031213D5FEF0031213D508F2031213D5D8
:102623003BF3031213D551F3031213D52FDB071218
:1026330013D547DB071213D5BDD2071213D5C878BC
:10264300001213D51779001213D5B77A001213D5D8
:10265300727C001213D5B47C001213D59D7D001239
:1026630013D5A77E001213D5C97E001213D5137F8D
:10267300001213D5947F001213D52ED8021213D54E
:1026830051D8021213D544D9021213D58DD902128F
:1026930013D5E5D9021213D541DA021213D58DDA17
:1026A300021213D503DB021213D58FDB021213D5EB
:1026B3007582061213D547DC021213D518E00212F5
:1026C30013D567E2021213D5A1E2021213D525E353
:1026D300021213D556E6021213D5CBE6021213D516
:1026E3005BE8021213D563E9021213D579EA0212E9
:1026F30013D5EFEA021213D5B6EB021213D51FEC72
:10270300021213D522EC021213D5F6EC021213D5E2
:1027130032EE021213D5F2EF021213D5EDF10212CB
:1027230013D5F8F2021213D594F3021213D5DFF482
:10273300021213D5E5F5021213D548F6021213D58A
:10274300E5F6021213D511D4051213D5A080051294
:1027530013D50A81051213D5B181051213D5108241
:10276300051213D5BC82051213D56585051213D541
:102773008B86051213D50F87051213D5EC88051226
:1027830013D59189051213D5348A051213D5938A6B
:10279300051213D54C8B051213D5CB8C051213D50B
:1027A300888E051213D50990051213D5639105126E
:1027B30013D57392051213D51993051213D53894B3
:1027C300051213D509BA041213D581BA041213D50D
:1027D300C9BA041213D50DBB041213D556BB041288
:1027E30013D5A0BB041213D5D5BB041213D553BC08
:1027F300041213D5ADBC041213D506BE041213D5AF
:1028030085BE041213D59CBF041213D5BEBF041298
:1028130013D5CAC0041213D5DBC0041213D5F3C0F9
:10282300041213D513C2041213D530C2041213D5E4
:1028330003C3041213D527C3041213D53EC30412D2
:1028430013D55FC3041213D581C3041213D573C404
:10285300041213D5CBC4041213D541C6041213D5E5
:102863009FC6041213D5BEC6041213D5F0C70412B3
:1028730013D56DC8041213D5DAC8041213D51AC9B7
:10288300041213D57CC9041213D52CCA041213D510
:10289300FECB041213D5E9CC041213D5E3CD0412F5
:1028A30013D5E9CE041213D505D0041213D513D0D2
:1028B300041213D5ECD0041213D58CD1041213D502
:1028C300D0D1041213D5E5D1041213D5F6D20412D4
:1028D30013D599D3041213D5F1D3041213D50CAB2A
:1028E300071213D5B4AC071213D571AD071213D564
:1028F300C6AD071213D5E09F071213D5FE9F07122B
:1029030013D542A0071213D568A0071213D58EA0C2
:10291300071213D5A6A0071213D5BEA0071213D50D
:10292300D6A0071213D539A1071213D57BA107121D
:1029330013D59DA2071213D5A6A2071213D5AFA2D2
:10294300071213D5B8A2071213D5C2A2071213D5C3
:10295300E3A2071213D56F93071213D54F970712EC
:1029630013D55D97071213D56297071213D524C6A3
:10297300071213D5CEDA071213D5D0FF051213D5DC
:1029830055C9071213D507DD071213D500800212AC
:1029930013D55780021213D5C380021213D54F816A
:1029A300021213D50582021213D54D82021213D5DA
:1029B3006682021213D58982021213D5AB820212E8
:1029C30013D5E982021213D53883021213D5638318
:1029D300021213D5C183021213D56884021213D5D0
:1029E3001085021213D58C85021213D55986021253
:1029F30013D5A086021213D5EC86021213D5748761
:102A0300021213D5AD87021213D50388021213D510
:102A13001F88021213D54E88021213D55A8A021246
:102A230013D5888B021213D5B48B021213D5E88BFE
:102A3300021213D5098C021213D5188C021213D566
:102A4300238C021213D5D28C021213D5428D02129B
:102A530013D5CD8D021213D5D58D021213D5428E07
:102A6300021213D57E8E021213D5448F021213D590
:102A73001790021213D56C90021213D50B91021208
:102A830013D56591021213D5AA91021213D543945B
:102A9300021213D58695021213D57098021213D51C
:102AA3005499021213D5389A021213D5499A021275
:102AB30013D5BB9A021213D5529B021213D5B79B9F
:102AC300021213D5A79C021213D5CC9C021213D564
:102AD300EA9C021213D5069D021213D5799D0212A8
:102AE30013D5889D021213D5109E021213D50D9F84
:102AF300021213D51A9F021213D5239F021213D564
:102B030005A1021213D527A2021213D537A202126E
:102B130013D565A3021213D5E4A3021213D5FFA4A0
:102B2300021213D53BA5021213D515A7021213D512
:102B3300D2AA021213D5E6AA021213D5F0AA0212E0
:102B430013D5FAAA021213D504AB021213D51DAB87
:102B5300021213D527AB021213D594AB021213D56D
:102B63009FAB021213D5C7AB021213D5D2AB02121D
:102B730013D537AC021213D542AC021213D566AC8F
:102B8300021213D58AAC021213D5FCAC021213D570
:102B930045AD021213D561AD021213D5D2AD0212A7
:102BA30013D51EAE021213D567AE021213D5A5AE0E
:102BB300021213D526AF021213D5CDAF021213D5CD
:102BC3009CB1021213D501B2021213D52FB3021214
:102BD30013D555B3021213D59DB4021213D5D7B72B
:102BE300021213D5D5B9021213D5A0BB021213D505
:102BF30039BC021213D53ABE021213D5EFBE02122C
:102C030013D528BF021213D58EBF021213D598BF56
:102C1300021213D5C1C1021213D500C3021213D578
:102C230057C3021213D502C4021213D5B2C502123E
:102C330013D5FFC6021213D51FC7021213D574C7CB
:102C4300021213D575C8021213D59DC8021213D5EB
:102C5300FCC8021213D5F4C9021213D56BCA0212AF
:102C630013D57ECB021213D5ECCB021213D5EBCCCA
:102C7300021213D545CF021213D56ECF021213D50C
:102C8300D4D0021213D556D2021213D5ADD20212EA
:102C930013D55BD3021213D500D4021213D559D422
:102CA300021213D517D5021213D5A9D5021213D5C3
:102CB30008D6021213D54AD6021213D57BD60212B6
:102CC30013D5D2D7021213D50080031213D5328045
:102CD300031213D56B80031213D52982031213D564
:102CE300FF82031213D55E83031213D57484031278
:102CF30013D5C084031213D54E87031213D5288A24
:102D0300031213D56F8B031213D5078C031213D53C
:102D1300138C031213D55C8C031213D59E8D0312EF
:102D230013D5948E031213D5BE8E031213D5148FAD
:102D3300031213D56D8F031213D5E08F031213D52E
:102D43001692031213D59893031213D58394031287
:102D530013D5CD95031213D50598031213D5029BF2
:102D6300031213D5119B031213D5A59B031213D57D
:102D7300509C031213D5939C031213D5DC9C0312AE
:102D830013D52C9D031213D5909D031213D5029EC8
:102D9300031213D51E9E031213D54D9E031213D592
:102DA3008C9E031213D5879F031213D536A00312EB
:102DB30013D5B3A2031213D5E5A3031213D5BDA4F0
:102DC300031213D53FA5031213D574A9031213D508
:102DD300A3A9031213D5FEA9031213D531AA031213
:102DE30013D5A9AA031213D5DCAA031213D53DAB3D
:102DF300031213D58DAB031213D55AAC031213D59B
:102E030013AD031213D5D7AD031213D551B003126B
:102E130013D5B3B1031213D504B3031213D528B4D6
:102E2300031213D52BB4031213D55AB4031213D5BB
:102E330052B6031213D511B7031213D540B70312B9
:102E430013D55EB8031213D526B9031213D5E4BA0A
:102E5300031213D516BB031213D558BB031213D594
:102E630057BC031213D5CABC031213D5F3BE031206
:102E730013D552BF031213D5A6BF031213D5D5C161
:102E8300031213D5B8C2031213D574C3031213D597
:102E930088C3031213D59CC3031213D5C9C30312EA
:102EA30013D5F9C3031213D5B4C5031213D5C6C67C
:102EB300031213D51BC7031213D564C7031213D50B
:102EC3008BC7031213D553C8031213D5F9C80312C2
:102ED30013D57FCA031213D5C6CA031213D538CB31
:102EE300031213D58DCC031213D536CD031213D58C
:102EF3006ACD031213D582CD031213D525CE031247
:102F030013D5A1D0031213D549D2031213D567D217
:102F1300031213D585D2031213D551D3031213D53C
:102F23009FD6031213D5AD84011213D5E584011284
:102F330013D5E589011213D52B8A011213D5618BA1
:102F4300011213D5C68B011213D53B8D011213D574
:102F53004590011213D56E91011213D5819B011275
:102F630013D5119C011213D5FB9E011213D508A092
:102F7300011213D56BA0011213D5B3A1011213D5FE
:102F830021A4011213D5B3A5011213D540A6011232
:102F930013D55FA7011213D5ECA7011213D5F6A71A
:102FA300011213D51EA8011213D5BEA8011213D501
:102FB300A9A9011213D576AA011213D593AA011256
:102FC30013D5BCAA011213D5E9AA011213D530AD4A
:102FD300011213D5FFAD011213D53EAE011213D565
:102FE300C0AE011213D561AF011213D593AF011215
:102FF30013D5DAAF011213D50DB0011213D551B0A9
:10300300011213D5A0B0011213D5A5B0011213D527
:1030130001B1011213D545B1011213D51FB201122B
:1030230013D584B2011213D5EAB2011213D565B3D5
:10303300011213D5CDB6011213D5D0B7011213D592
:103043004EB9011213D564BC011213D506BD01128A
:1030530013D54FBF011213D50AC0011213D549C0AE
:10306300011213D521C2011213D53EC2011213D589
:1030730047C2011213D550C2011213D55BC201120C
:1030830013D57AC2011213D51EC4011213D57BC402
:10309300011213D585C4011213D58FC4011213D5A0
:1030A300EEC4011213D538C5011213D539C6011266
:1030B30013D590C6011213D5A1C7011213D5EAC7C0
:1030C300011213D5A4C8011213D5BBC9011213D51C
:1030D30090CA011213D5D7CB011213D5DBCC011241
:1030E30013D5D4CD011213D5ECCD011213D523CEB4
:1030F300011213D52DCE011213D537CE011213D5DC
:1031030042CE011213D560CE011213D5A8CE0112FF
:1031130013D506CF011213D52DCF011213D53FCFEF
:10312300011213D5F4CF011213D52DD0011213D5EB
:103133004FD1011213D5A2D1011213D588D2011296
:1031430013D5AFD2011213D51FD3011213D59BD3BD
:10315300011213D5F7D4011213D51ED6011213D5BC
:10316300E0D6011213D5AED7011213D56CD80112D4
:1031730013D554D9011213D5FED9011213D566DA2A
:10318300011213D51BDB011213D577DB011213D503
:10319300CFDB011213D595DC011213D5B8DC011274
:1031A30013D573DD011213D595DD011213D5F6DDA9
:1031B300011213D526E0011213D51FE1011213D515
:1031C300CBE1011213D5ECE3011213D535E401125F
:1031D30013D580E4011213D5DCE4011213D53AE5CB
:1031E300011213D55EE5011213D582E5011213D541
:1031F300B7E5011213D5DFE5011213D524E6011259
:1032030013D578E6011213D5D1E6011213D5CBE716
:10321300011213D569E9011213D5AEE9011213D5D1
:10322300D7E9011213D560EA011213D5D3EA0112CB
:1032330013D5E1EA011213D505EB011213D55BEBAC
:10324300011213D576EB011213D531EC011213D50C
:103253005DEC011213D5A0EC011213D503ED01129D
:1032630013D511EF011213D53DEF011213D5F8EF6A
:10327300011213D5DCF0011213D570F1011213D52D
:10328300BDE7051213D5F5E7051213D516E80512A8
:1032930013D558E8051213D5BCE8051213D5C6E8B3
:1032A300051213D5D6E8051213D50DE9051213D56A
:1032B300B6EC051213D57EEE051213D562F0051296
:1032C30013D504F1051213D58EF1051213D55080D1
:1032D300041213D5F980041213D5D881041213D51F
:1032E300E482041213D50483041213D52684041232
:1032F30013D5D685041213D54386041213D5148728
:10330300041213D51A88041213D59288041213D504
:10331300CD88041213D52689041213D561890412AA
:1033230013D5AA89041213D53E8A041213D5D48A5D
:10333300041213D5A98B041213D57C8C041213D554
:103343000A8D041213D5308D041213D55D8D04122A
:1033530013D58E8D041213D55B8E041213D56B8E89
:10336300041213D5BE8E041213D5CB8E041213D5BB
:10337300D88E041213D5E18E041213D5458F04128F
:1033830013D5A38F041213D5EE8F041213D509900E
:10339300041213D53090041213D54D90041213D593
:1033A3005990041213D5EA91041213D5039204120F
:1033B30013D57F92041213D59292041213D5A292BD
:1033C300041213D54693041213D5B294041213D5E1
:1033D300C595041213D56596041213D56F9604127E
:1033E30013D5EE96041213D5FF96041213D53E9708
:1033F300041213D56C97041213D53998041213D5FC
:103403009098041213D5C998041213D51F99041266
:1034130013D53D99041213D58B99041213D5569ADB
:10342300041213D5A49A041213D5F19A041213D5D6
:10343300749B041213D59E9B041213D5D49B0412C0
:1034430013D5E39B041213D5429C041213D5BA9CE3
:10345300041213D5FB9C041213D54B9D041213D5F0
:10346300769D041213D5909D041213D5AA9D0412C0
:1034730013D57F9E041213D5899E041213D5C49EBF
:10348300041213D5D49E041213D5259F041213D509
:10349300399F041213D55BA0041213D570A0041234
:1034A30013D503A1041213D577A1041213D51CA2BB
:1034B300041213D527A2041213D58AA3041213D519
:1034C300A6A3041213D5F2A3041213D560A4041205
:1034D30013D592A4041213D5ACA4041213D50CA5CE
:1034E300041213D5ABA5041213D5F6A5041213D5F4
:1034F30049A8041213D5E1A8041213D558A904123C
:1035030013D5B5AB041213D5CDAB041213D5D0AB81
:10351300041213D5DCAB041213D5F0AB041213D58C
:10352300F8AB041213D52FAC041213D523AD041238
:1035330013D5ADAD041213D52FAE041213D5AFAE10
:10354300041213D586AF041213D5A8AF041213D5F2
:1035530041B0041213D59EB0041213D5A1B00412C6
:1035630013D510B1041213D55CB2041213D56FB383
:10357300041213D5FAB3041213D50DB5041213D5DF
:10358300D4B5041213D505B6041213D52BB6041201
:1035930013D534B6041213D563B6041213D513B777
:1035A300041213D5C3B7041213D536B8041213D5B6
:1035B300D9B8041213D54CB9041213D58BB904121C
:1035C30013D5D4B9041213D52A82061213D58F81C9
:1035D300061213D50080061213D515B6051213D59E
:1035E3009AB4051213D59DB3051213D55EB1051216
:1035F30013D508B1051213D54BAF051213D5C2ACC1
:10360300051213D53CAC051213D5F8AA051213D530
:1036130011D3051213D532D2051213D5B4A905124D
:1036230013D52DA9051213D502FD061213D565FC7A
:10363300061213D55AB5071213D532B5071213D58F
:10364300C9B4071213D575B4071213D559D105128E
:1036530013D57FD0051213D5B5CF051213D524CEBC
:10366300051213D5EDCD051213D5BFCD051213D514
:1036730073CD051213D5DCCC051213D54CCC051232
:1036830013D526CC051213D5DBCB051213D5A5CB49
:10369300051213D528CB051213D5C3CA051213D5AA
:1036A30072CA051213D59AC9051213D50AC9051290
:1036B30013D5BEC8051213D539C8051213D5F4C7DF
:1036C300051213D5D8C7051213D580C6051213D515
:1036D3001DF9061213D552C6051213D59AF8061210
:1036E30013D547F8061213D57DDC071213D562DC18
:1036F300071213D56A88061213D50C87061213D541
:10370300A386061213D53A86061213D51FC60512D1
:1037130013D5A3C5051213D55091071213D53B90AA
:10372300071213D51A85061213D5678F071213D5FF
:10373300E68E071213D572E7051213D519E70512A2
:1037430013D54B84061213D5E4E6051213D5008076
:10375300051213D5AFE6051213D57BE6051213D573
:103763000EE6051213D5F6E5051213D5D1E50512BC
:1037730013D5AAE2051213D57DE0051213D584DE15
:10378300051213D510DE051213D5C1DD051213D5AD
:103793007BDD051213D51DDD051213D542990612E3
:1037A30013D5B098061213D59283061213D5CC976E
:1037B300061213D53296061213D5F293061213D5B9
:1037C3002B93061213D504DC0200000080FB8F004C
:1037D3000100361B87000100061E35000400CA1DC8
:1037E30025000200CE1D26000200D01D2700020086
:1037F300D21D28000100DC1D29000100DD1D84000D
:103803000400DE1D86000100E21D2A000100E31D05
:103813002B000100E41D2C000100E81D2D00080011
:103823001E1B2E000100E91D2F000100EA1D3000C0
:103833000100EB1D31000100EC1D32000100261BCD
:1038430033000100271B34000100ED1D3600010089
:10385300281B38000100EE1D39000100E71D83001D
:103863000200041E63000100331B64000100E51D18
:1038730065000100E61D6D000100341B71000800A6
:10388300161B66000100031E43000100F41D4400E3
:103893000200F51D45000100F71D46000200F81D5A
:1038A300470008002B1B48000100FA1D4B000100D4
:1038B300FB1D04000100071EA10001000A1E3700C2
:1038C3000100091E88000100081E3C000100291B9D
:1038D3003D000100EF1D49000200FC1D67000100CF
:1038E300351B4D000200FE1D4E000100001E4F005F
:1038F3000200011E3E000100F31D51000100F01DF6
:1039030052000100F11D53000100F21D540001009B
:103913002A1B0000000000000001363601010001EF
:103923000201000103010001040106060502000073
:10393300070100340801000F090401010D0100FF14
:103943000E08000017020000190100FF1A01000110
:103953001B0100FE1C0100081D0200001F010001E5
:1039630020010001210200002301000F24020000B6
:103973002601000127010008280200FF2A01000791
:103983002B0102402C0100002D0100012E0100013A
:103993002F0100FF30010B1D310800003A01000820
:1039A3003B01000F3C0100013D0100FF3E0400000C
:1039B30042040000460400004A0400004E040000D4
:1039C30052040000560400005A04000000000000E6
:1039D3002001A984000001002001A9840000020045
:1039E3002001AC84000003002001AA84000004002D
:1039F30042016D800000050042017E800000060048
:103A03004201A080000007002001AB8000000040BD
:103A13004201A0800000100042018F8000001100CD
:103A230020010107000012001003951D060000008D
:103A33001011000008000000203300000C005500A6
:103A4300393300000C001C00423300001200550003
:103A53002001000014000E00422200000103710344
:103A63000103010301030103010322030203010311
:103A7300100300030003000300030003000300031B
:103A83004203000324030603000300030403120399
:103A93002503230325032303040304030003000373
:103AA3000003440300030003230300036503210011
:103AB3003503810300030503000300030003000330
:103AC3002503230301017101010101011101010119
:103AD3003101010101018001100161013B0014006A
:103AE30063017301720162014301000113010601C5
:103AF3003D01350004011201000100010001000134
:103B030004010401330133013C0144013201360055
:103B1300000100016501000135008101000105017B
:103B2300820183010001030471040204600411048F
:103B3300700402040204010402041004610400047A
:103B4300140463047304720462044304000413043E
:103B53000604000400040404120400040004000426
:103B6300000451046400000400040004440400043D
:103B730000040004000465040004350481046400A7
:103B8300050400048304000403027102300160028F
:103B9300110270020102020202028002100261029B
:103BA3003A0041006302730272026202430200029E
:103BB3001302380000020002040212020002000293
:103BC3000002000204020402370037003C024402F0
:103BD3000002390000020002650200023502810280
:103BE3000002050282028302000203007100300119
:103BF30060001100700031022003500480001000A7
:103C0300610000001400630073007200620043004F
:103C13000000130006000000000004001200000072
:103C230000000000000004000400370037003C02DD
:103C330044000000000000000000650000003500A3
:103C43008100000005000000830000003600010031
:103C5300060000000F00000000000000000000004C
:103C6300000003FFFF00000403FFFF0000FFFF0F3E
:103C7300F4010005C4040320000100000B00000050
:103C8300000000000003010F00000000000000001E
:103C93000000000000000000000000000000000021
:103CA30000000000000000000000F2234C24F82371
:103CB300FC22FE235224FE235E240424FC22FE2342
:103CC30052240A24FC221024FC221624FC221C2445
:103CD300FC222224FC222824FC222E2464243424C3
:103CE300FC220000000000000000000000003A2455
:103CF30076244024FC223A2476244024FC222E24D9
:103D030064244624FC2200006427130010271F00AC
:103D130016271F801C270100642702009826030032
:103D23009E260400A4260500AA260600B626300017
:103D3300D4263100CE263200E0263300E6263500B5
:103D4300EC263400F2263600F8261100042714006E
:103D53000A271500C826FFFF00000A000000020022
:103D63000000040000000800000010000000200014
:103D7300000040000000800000000001000000027D
:103D830000000004000000080000001000000020F4
:103D930000000040000001622F068C2F08862F0BC5
:103DA300A42F107A2C02682F057A2F076E2F0C4A46
:103DB3002F0D562F64762AFF000007ECFDFDFDEC66
:103DC300DCDCCCBCACAC9C9C8C7C7C6C6C5C5C5CB0
:103DD3004C4C3C3C2C2C1C1C03EAF5E5D5D5C5B555
:103DE300A595958585757565655555454535352580
:103DF3002515150500160F00000B150B02000222F6
:103E03000F3300000E5A6967426565416C6C696146
:103E13006E6365303901030507090B0D0F000204BA
:103E230006080A0C0D0001191618161618230300AC
:103E3300303017181921301B1D1F30303016181958
:103E430020231A1C1E3000034A49434E181A250525
:103E53000200393D3F373C3C362C442D0C0E020BFF
:103E6300040B0A0708000F02040201010101090201
:103E730000BE040AE803000000000E00E80300008F
:103E83007F001E1E050300030400100A0C10080C1B
:103E9300280904040903010C0508151208FFC08250
:103EA300C083E9901986F00241A674F4120DF38AD7
:103EB300088B09EB5480604D800EEEFAEFFB122362
:103EC3005CEEFAEFFB121F78901986E0F9121F8A55
:103ED3008A0A8B0BAE0AAF0BEE4F60208E828F8364
:103EE300E0641A60D5EEFAEFFB1222F6E9F974FFEB
:103EF3006960CEEEFAEFFB121F7E80CCAA08E509BB
:103F03006480FB80047A007B0002418E74F7120DFB
:103F1300F37AFF0255CE74F6120DF3E9FEEAFF7A47
:103F2300047B001245A1A808A909EA496034EF8A75
:103F3300828B83A3A3A3F0EE8A828B83A3123F9D7C
:103F4300E4F0A3F09019951245C17009901995E812
:103F5300F0A3E9803FE0FB8A828B83A3A3A3E06FF6
:103F6300700479008031EAFCEBFD8A828B83124571
:103F7300C170E474FF6F700C8C828D83123FA4E4D4
:103F8300F0A38010901995125EF5901995123FA435
:103F9300EAF0A3EBF07901025777A3F08A828B83CF
:103FA30022126E0C8882898322C082C083EA126F38
:103FB3000E3BF583E0FA9019958004888289831279
:103FC3005D97601C88828983A3A3A3E0FBEA6B60EF
:103FD3000574FF6B70E588828983A3A3E0F98002EF
:103FE30079FF0241A674F4120DF3EAFEEBFF8A8215
:103FF300F583125EF51222F6E9F50874FF69700382
:104003000240997A197B00121F72EA4B7003024037
:10401300998A828B837434126976A3EA2402FCE4BE
:104023003BFD740612134E8E828F8312725E88825A
:10403300F583126F208A828B83A3A3A3A3A3A3A3D5
:10404300A312409EA3A3A3A3A3A3EA240AFCE43BD5
:10405300FD740C12134E8E828F83126028C8126F68
:104063000E38F583E0C0E0EA2416F582E43BF583DD
:10407300D0E0F0EE240CF8E43FF98882F583126F68
:1040830024EA2417F582E43BF58312409EE4F0A36F
:10409300F0A908121F7E790102418EECF0A3EDF026
:1040A3008882898322C082C083901993125EF502AD
:1040B30041A674F4120DF38A088B09ECFEEDFF7A26
:1040C3000812410870047910803812417212419A23
:1040D300740C12177F125EF588828983A3A3A3A3AE
:1040E3001278B890198B1245C190198B6011124147
:1040F300958003EAFCEB1245BC70F88C828D831229
:10410300416C02418E7B0012200E8A0A8B0BA80A97
:10411300A90BEA492274F4120DF389088A09ECFE0B
:10412300EDFF7A0A12410870047910803A12417245
:104133008A828B83A3A3A3E4F0A3124185E509122A
:104143004185A3EEF0A3EFF090198F1245C19019AA
:104153008F60111241958003EAFCEB1245BC70F8A5
:104163008C828D8312416C8022126E0C7900221294
:104173004176228A828B83E4F0123F9DA3A3E50854
:10418300F0221255BFA3A3221214057F0402114289
:104193008F83E0FCA3E022A3E5091255C4EEF0A34C
:1041A300EFF022D083D0820213D274F2120DF3EA1D
:1041B300FEEBFF8C088D091223748B0DA90DEA49C0
:1041C30060198A828B83A3A3A3EEF0A3EF1255BBDE
:1041D300E508F0A3E509F0790080027901025F7731
:1041E30074F4120DF374F71214E8E9FE851882854E
:1041F30019837401F0EC7006EDC39406404D74030B
:104203006A4B604774011214BA880A890B780A1240
:1042130013F27C127D007A007B00EE1242591214D5
:1042230005E9601CE4F50AF50B780A1213F274032E
:104233001214CA74021214C21223C874021214058F
:10424300851882851983E0640170047901800279FD
:1042530000740902418BF912237A74022274E81262
:104263000DF374FA1214E889128A168B178C088DD1
:10427300091237668A148B15EA4B700579020243DB
:10428300EFAA08AB09A912122392E9F50FA2E6409F
:104293001C901993125D976014E82419F582E43990
:1042A300F583E064017006E50FD2E6F50F7C067D29
:1042B300007900AA18AB19121F60741F12177F121E
:1042C30043F46009E054FCF0E044018003E054FC53
:1042D300127306125D97602B741E12177FE0FE881F
:1042E300828983A3121209EEFD740212177FE05430
:1042F30003FCAA08AB09A91212231A7402121405AB
:10430300E9700579010243EF742212177F125D975A
:104313006012851882851983E04404F07402121731
:104323007F126E08742012177F1243F46005E04475
:10433300088003E054F7F0742112177F1243F460EE
:1043430005E044108003E054EFF0742412177FE07B
:10435300C0E0740412177FD0E0F0740512177FEEEB
:10436300F07803851882851983E054046002780588
:10437300742512177F1249E8E82510FEE43511FF72
:104383001246866063AC0AAD0BAA18AB19122368F8
:10439300742712177F125F071213EEAC10AD1112C0
:1043A3006176121405750C1E780C1213F6750C89C0
:1043B300750D19780C1213F2780A1213F28E0C8F02
:1043C3000D780C1213F278081213F2A90FAC14AD86
:1043D30015AA16AB171237727409121405E9FEAA4F
:1043E3000AAB0B12201480027E10EEF97406026EE3
:1043F300161243F822E08518828519832274EA1283
:104403000DF374FE1214E8890B8A148B158C0E8D30
:104413000F7E007F00750A00741812177F1249E897
:1044230080111245B21223D48B09EE2AFEEF35090F
:10443300FF050A126C21502EE50A75F00612499FFA
:104443002403FEE43FFFA3A3E070E60EEE70010F2A
:1044530088828983A3A3A3A31245C1888289836029
:10446300C1125D0880C2EEFAEFFB1245A18A0C8BE4
:104473000DEA4B7003024595750A008030A818A910
:10448300198812891378121213F278081213F28A18
:10449300828B831245B21223DA740412140512724A
:1044A30058E50828F508E50939F509050A126C21CC
:1044B300507CE50A75F006A4F8A9F0E51028F5820A
:1044C300E511126C081245A98A828B83A312552F1A
:1044D300F01255A312552AF0E5082403F5085002FB
:1044E300050988828983E070C2EA240308E43BF962
:1044F3008882F5831245A9A38582088583098A8268
:104503008B83A3A3A3A31241958C82F583E58245F4
:10451300837003024480AC08AD09AA82AB8388820E
:104523008983E0F91223AA8A088B090244AE780C26
:104533001213F28E088F0978081213F274201217DF
:104543007F1249DE1213F6E4F508F5097808121311
:10455300F2742212177F1249DE1213F67422121715
:104563007F1249DE1213F675080078081213F675E8
:10457300080178081213F6AC0EAD0FAA14AB15A9F7
:104583000B124E7C121405E9FEAA0CAB0D1220147B
:1045930080027E10EEF974021214050245CF122038
:1045A3000E8A088B0922E0850882850983F022128E
:1045B30072F4AA0EAB0FA90B22FD8C828D83125EBF
:1045C300FDEA4B22EEF98004AA12AB137F0E02110F
:1045D3004274EC120DF3890A8A108B11ECFEEDFF85
:1045E300741412177F1247DA7003024677A808A9DA
:1045F300097C00800D1247BD50010B1247ED50019D
:10460300090C850C82850D83E0FAECC39A40E674AD
:10461300016A700AA3E07006750E01750F00780831
:104623001213F2780E1213F2741C12177F1247B78B
:104633001213F6E4F50CF50D780C1213F2741E1236
:10464300177F1247B71213F6741E12177F1247B75C
:104653001213F6750B00780B1213F6750B04780B17
:104663001213F6124E72121405E9FEAA08AB0912D0
:10467300201480027E100247A0740A1214057F0CD6
:10468300021142EEFAEFFB12200E8A0A8B0BEA4B61
:1046930022F5831258BF22F8E4350DF98882F58399
:1046A3001249CEA322851082851183E0F8E508C361
:1046B300982274EC120DF3890A8A108B11ECFEED2B
:1046C300FF741412177F1247A5F5087509007402C9
:1046D300780812164D85080E85090FAA0EAB0F1226
:1046E30074C3700302479E7900803EE9F512751387
:1046F300007402781212164DE50C2512FCE50D35F7
:1047030013FD8C82F583A3124696124FA8A312467B
:1047130096A3F0EC2403FC50010DF5828D83E01287
:104723004FA2124F7C50010B09850C82850D83E04B
:10473300F8E9C39840B5740168700AA3E070067580
:104743000E01750F0078081213F2780E1213F2742B
:104753001C12177F1247B71213F6E4F50CF50D7808
:104763000C1213F2741E12177F1247B71213F6744A
:104773001E12177F1247B71213F6750B00780B1230
:1047830013F6750B07780B1213F6124E72121405FB
:10479300E9FEAA08AB0912201480027E10EEF9028A
:1047A30046811247A922E0F50CA3E0F50D850C82A2
:1047B300F583E022E0F50B780B22EC75F003A4FA05
:1047C300ABF0E50C2AFAE50D3BFB8A82F58312492F
:1047D300FBF0EA2402FA221247A975F003A4F50EAE
:1047E300E5F0F50FAA0E1272B122F5828B83124BFC
:1047F300B21249F4A3A3F0E82403F82274E8120DDB
:10480300F374FE1214E8124A4612177F1249E88025
:1048130009EE2402FEE43FFF05081246A85037E5DF
:104823000875F00D12499F2404FEE43FFFE070E891
:10483300A3E070DDEE2405FEE43FFFE82404F50A5F
:10484300E4391249BA60D1850A82850B83E0F912F3
:1048530023BCEE2980BE124686700302499A8A0E53
:104863008B0F7508008018E50C2409FAE4350DFB5D
:104873008A821249C81249F0F08C0E8D0F05081276
:1048830046A84003024937E50875F00D124A02AA0B
:1048930082AB831246A3F0E50C240212469A124A15
:1048A30017A3F0E50E2404F50E5002050F850C82C4
:1048B300850D83E070C7E50E2402FCE4350FFD850A
:1048C3000E82850F83A3A882A9838A828B83E070DB
:1048D30096E50C2404F512E4350DF51385128212C6
:1048E30049C8F0E50C2405F516E4350DF5178516D2
:1048F300821274C7124A292407F8E4350DF9888215
:104903001249C8124A3EF0E50E2405F50E50020581
:104913000F8512828513831249C17003024880AC4C
:104923000EAD0FE50C240BF582E4350DF58312492A
:10493300D6024880780A1213F28E0C8F0D780C126F
:1049430013F2742212177F1249DE1213F6E4F50CE8
:10495300F50D780C1213F2742412177F1249DE122C
:1049630013F6742412177F1249DE1213F67508002A
:1049730078081213F675080978081213F6AC14AD0B
:1049830015740B12177F1249AF121405E9FEAA0A18
:10499300AB0B12201480027E10026E12A4F8A9F051
:1049A300E51028F582E511124B4DEE22125EFDA9AA
:1049B30009122320740B22F50B850A82F583E0F993
:1049C3001223B0E922F5831249CE22E0850E8285B7
:1049D3000F8322124BB78A0E8B0F22E0F50878085B
:1049E300228E828F83E0F510A3E0F511221249F4A1
:1049F30022123F9E1249FB22A3E08882898322125E
:104A03006DD685820C85830D1249CEF0850C828587
:104A13000D83A322124A1B22A3124C54E0850E825B
:104A2300850F83A3A322F0851682851783124A3745
:104A3300F0E50C22A3E08C828D8322A3A3124A1BF0
:104A4300A3A322851882851983EAF0A3EBF08909D1
:104A53008C148D157E007F00750800741A2274EA89
:104A6300120DF3890B8A108B118C0E8D0F7E007F34
:104A730000750A00741612177F1253EA8003124B53
:104A83001A850C82850D83126C2740F2EEFAEF1221
:104A930074C2607EA808A909750A008003124B56E8
:104AA300850C82850D83E0FAE50AC39A40EF780806
:104AB3001213F28E0C8F0D780C1213F2741E121750
:104AC3007F126C4D1213F6E4F50CF50D780C1213EE
:104AD300F2742012177F126C4D1213F67420121702
:104AE3007F126C4D1213F6750A00780A1213F675CD
:104AF3000A0A780A1213F6AC0EAD0FAA10AB11A96D
:104B03000B124E7C121405E9FEAA08AB09122014FD
:104B130080027E100245C7E50A75F005A4F8A9F0E6
:104B2300E50C28F582E50D124B4DA3A3A31278C023
:104B3300A3A3E0F91223C28B09EA2403F8E435099D
:104B4300F9EE28FEEF39FF050A2239F583A3A8827F
:104B5300A98322E50A75F005A4FAABF0124BA685EA
:104B630082148583151249FC124F9D88828983A381
:104B7300F0E51412760335158A12F5138A82F5834C
:104B8300124BB2A3F0E82403FCE439FD85148285BB
:104B93001583A3A3A3124BB78A128B13A812A913CD
:104BA300050A22E50C2AF582E50D3BF583A32212C3
:104BB30049FCA322125F01851282851383E0F91257
:104BC30023AA2274F6120DF374FE1214E8E9FE749C
:104BD3000C12177F124C45C0E0740112177FD0E00E
:104BE300F0A818A9198808890978081213F275081A
:104BF3000275090078081213F2741612177F12490E
:104C0300DE1213F6741512177F1212097416121797
:104C13007F1249DE1213F6741612177F1249DE1241
:104C230013F675080078081213F675080B78081246
:104C330013F6EEF9124E7C121405740212140502D7
:104C430057771273208882F5831243F8124C54E08D
:104C530022F088828983A32274EA120DF389138ACE
:104C6300108B11ECFEEDFF741612177F127621E5FF
:104C73000A2402F50CE4350BF50D850C82F583E06F
:104C830004751200F50E750F00FAAB0F1274C370A2
:104C930003024D86850A82850B83124E66801EEAC7
:104CA300FC850A82850B83A3A3A3E02CFBA3E0343A
:104CB300008B821274C7F0A3A882A9830A850C8291
:104CC300850D83E0FBEAC39B40D5850A82850B8370
:104CD300A3E0F8741812177FE0F9741912177FE034
:104CE300FA741A12177FE0FB74116870397808128E
:104CF30013F2780E1213F2EBF50A780A1213F6E4A4
:104D0300F50AF50B780A1213F2EAF50A780A121378
:104D1300F6E9F50A780A1213F6750A00780A1213EF
:104D2300F6750A12803C741368704F78081213F2F8
:104D3300780E1213F2EBF50A780A1213F6E4F50A69
:104D4300F50B780A1213F2EAF50A780A1213F6E958
:104D5300F50A780A1213F6750A00780A1213F67523
:104D63000A14780A1213F6EEFCEFFDAA10AB11A990
:104D730013124E7C121405E9F512AA08AB0912208E
:104D8300148003751210A9120245CF74E8120DF3B3
:104D930089108A128B13ECFEEDFF741812177F1221
:104DA3004F8875F003A4A9F02401F50EE4391274B9
:104DB300BE7003024E5F850C82850D83124E6680A2
:104DC3002EEA75F003A4FCADF0E50C2CFCE50D3DDB
:104DD300124F6E1274C7124F9988828983124FAF94
:104DE30088828983A3A3F0E82403F85001090A8584
:104DF3000A82850B83E0FBEAC39B40C57808121344
:104E0300F2780E1213F2742012177F126C4D1213E4
:104E1300F6E4F50AF50B780A1213F2742212177FDF
:104E2300126C4D1213F6742212177F126C4D12136B
:104E3300F6750A00780A1213F6750A0D780A12132A
:104E4300F6EEFCEFFDAA12AB13A910124E7C12145E
:104E530005E9FEAA08AB0912201480027E10EEF9C0
:104E6300026E191258BFF0A3A882A9837A0022EE1A
:104E7300FCEFFDAA10AB11A90A122320740B2274B4
:104E8300E8120DF389128A108B11ECFEEDFF7418F2
:104E930012177F124F88F5087509007402780812FB
:104EA300164DE5082401F50EE435091274BE7003AE
:104EB300024F69850C82850D831258B6A3AA82AB73
:104EC3008379008034E9F51475150074027814129F
:104ED300164DE50C2514FCE50D3515124F6E1246E3
:104EE30094124F998A828B83124FAF124FA2A3A3BE
:104EF300A3A3124F7C50010B09850A82850B83E023
:104F0300F8E9C39840BF78081213F2780E1213F22F
:104F1300742012177F126C4D1213F6E4F50AF50B89
:104F2300780A1213F2742212177F126C4D1213F6C1
:104F3300742212177F126C4D1213F6750A00780A49
:104F43001213F6750A16780A1213F6EEFCEFFDAA91
:104F530010AB11A912124E7C121405E9FEAA08AB7C
:104F63000912201480027E10024E61FDEC2402F52A
:104F730014E43DF515851482221258BFA3A3A3F0B0
:104F8300EA2404FA221253EE850C82F583A3858268
:104F93000A85830BE022124F9D2212730CE0228AB2
:104FA300828B83A3A3F08C828D83A322A3F08C82B4
:104FB3008D83A3A3A3A3E02274F1120DF374EB1268
:104FC30014E8EAFEEBFFC200EA2420F8E43F880875
:104FD300F5098882F583C3E09403A3E094005005A8
:104FE30079010253E29019931278BA740212177F6F
:104FF3001278BA740E12177FE4F0A3F0740A121732
:105003007FE4F0A3F0740C12177FE4F0A3F0EA241A
:1050130022F8E43F880AF50B8882F583126F247423
:105023000412177FAA82AB831223628A0C8B0DA80A
:105033000CA90D740A12177F1278BA8508828509A4
:1050430083125EF5EAC398F8EB99F9850A82850B1A
:1050530083E028F8A3E039F9740C12177F126E0865
:10506300740812177FE090198AF0EE2414F508E40F
:105073003FF509850882F583E0F91237668A828B4A
:1050830083E5824583700C901993E4F0A3F07902D1
:105093000253E2125430602BEE2404F50AE43FF588
:1050A3000BA3121209740B12177FE0FD740612177B
:1050B3007FE05403FC12543F12231A7402121405A6
:1050C300E9700C901993E4F0A3F079030253E21210
:1050D300543F122392E9F50E850A82850B83125EF3
:1050E300F5EAFCEBFD90198B800488828983125DBD
:1050F3009770030251DE88828983A3A31253EAC304
:10510300EA950CEB950D40E288828983A3A3A3A3C0
:10511300C3E09CA3E09D40D2E8FCE9FD74041217B0
:105123007FE05407700D740912177FE0640B70035E
:105133000251E2E50EA2E640030251E2EE2419F524
:1051430082E43FF583E060030251E2740212177FA9
:10515300125408707A740212177F125D9270707C79
:1051630000850882850983E0F912239874011217D8
:105173007F7401F0740912177F1253F612177FE040
:10518300F50C780C1213F6740712177F12120975B7
:105193000C01780C1213F6740812177F1274D312D1
:1051A30013F674051214BA880C890D780C1213F2D5
:1051B300740912177F12542712177F1253FC121708
:1051C3007F1254161214057C0112543F1223989037
:1051D3001993E4F0A3F079050253E27C007D007497
:1051E3000412177FE0F8540360030252FDE85404ED
:1051F30060057E8402533C740912177FE0F8C39460
:105203001740030252F9E8F50A750B007402780A95
:1052130012164D74AD250AF582743C350B12589E57
:10522300E84970030252F9850882850983E0C0E0EA
:10523300741012177FD0E0F0740C12177F125EF512
:10524300741112177F1278BA740A12177F125EF55F
:10525300741312177F1278BA74101214C2888289D9
:1052630083120FC28B09A909740E12177F1278BA21
:10527300EA496048740912177FE0F508750900745C
:1052830002780812164D74AF2508F582743C35096F
:10529300F583E493F87401938882F583E58245836B
:1052A300601274021214C2120FC2740E12177F120C
:1052B3005D976008740E12177F12786974091217CC
:1052C3007FE0F86054740268604F740368604A7446
:1052D300066860457408686040740C68603B74112C
:1052E3006860367413686031741568602C740B68D9
:1052F30060277E0080437E82803FEC4D602B8C8252
:105303008D83A3A3A3125430601F74021214C2121C
:105313000FC2E9FE74FF6E700B901993E4F0A3F0D3
:10532300F90253E274016E7010740412177FE05493
:105333000460047E8380027E81740212177F1254FC
:10534300087075740212177F125D92706B740412E9
:10535300177FE0FA54107060740112177FEEF07437
:105363000912177F1253F612177F1249DE1213F632
:10537300740712177F12120975080178081213F6C1
:10538300EA131313541F64015401F5087808121328
:10539300F674051214BA8808890978081213F2748E
:1053A3000912177F12542712177F1253FC12177F0B
:1053B300125416121405D200901993E4F0A3F0EEE0
:1053C30070047900801974846EA200700A50047905
:1053D30007800C79068008500479098002790874E3
:1053E30015121405025D021253EE22E0F50CA3E040
:1053F300F50D22127864740822E02406FAA3E0343F
:1054030000FB740922126028C82415F582E438F5DC
:1054130083E022A3E0C8126F1238F583E0F9122368
:10542300447407221272041272F0740922A3A3A314
:105433001260288882F583E582458322850A828566
:105443000B83125EFD850882850983E0F92274F4DB
:10545300120DF38A088B09ECFEEDFF7C067D0079C3
:1054630000121F60850882850983E054FCF8A3E0DD
:10547300F98E828F83E05403FAE84A85088285090E
:1054830083F0A3E91278B0A2E25004D2F08002C202
:10549300F0850882850983E054FBF0A2F0E433F53C
:1054A3000A750B007402780A12164DE0450A127849
:1054B300B0A2E3850882850983E050044408800292
:1054C30054F71278B0A2E45004D2F08002C2F085FF
:1054D3000882850983E054EFF0A2F0E433F50A74FF
:1054E30004780A12164DE0450A12617C850882850C
:1054F3000983E0540460108E828F83E0FAA3E0F9FD
:10550300EA1266CD50010F8E828F8312552AA312A1
:105513005538850882850983A3A3A3A3A3F0EE12BC
:1055230076033FFB02418E12552FA322E0850882AA
:10553300850983A322A3126976E02274F7120DF37F
:105543008A828B83E054038C828D831255B6540474
:105553001255AF54081255AF5410F88C828D83E066
:1055630048F0A3AC82AD838A828B83E05404601637
:105573001255A3124A38124C4F8C828D83A3F0EC40
:105583002402FC50010D8A828B83A3A3A3124A3702
:105593001255BB124A38A3F0EC1276033DFB802E62
:1055A300EA2402F8E43BF98882F58322F88C828DA1
:1055B30083E048123F9EE0221255BF221255C4A336
:1055C30022F08A828B83A3A3A3A3221222F07F015A
:1055D300021142C082C08390198D80048A828B831A
:1055E3001245C1600C8A828B83A3A3E06970ED80AE
:1055F300047A007B000241A6C082C08390198F8089
:10560300048A828B831245C160138A828B83A3A38E
:10561300E0F8E968600B74FF6870E680047A007B49
:10562300000241A674F0120DF38A088B09ECFEED1B
:10563300FF1223748A0C8B0DEA4B60627C0080019D
:105643000C850C82850D83A3A3A3A3A3A3A312603C
:105653000E504BECF50E750F007403780E12164DB9
:10566300850C82850D83A3A3A3A31258A88882F572
:1056730083E493FA740193FBE5086A7003E5096B0D
:1056830070BEA3A31256A57002EF6B70B374101211
:10569300177F1256AF740812130A7901800279003A
:1056A3008015E493FA740193FBEE6A221272F48973
:1056B300838882221214057F0802114274F6120DA8
:1056C300F31256EB6005125EF280047A007B00024F
:1056D300577774F6120DF31256EB6005125EF080E5
:1056E300047A007B000257771223748A828B83E546
:1056F3008245832274F7120DF3E9FFEAFCEBFD9078
:105703001991800488828983125D97604688828913
:1057130083A3A3E06F70ED7E0080010E88828983EE
:10572300A3A3A3E0FAEEC39A50DAEE75F003A4FA4A
:1057330085F008AB0888828983A3A3A3A3E02AFA90
:10574300A3E03BFB8A82F583E06C7003A3E06D70FA
:10575300CA80047A007B000255D174F6120DF3124D
:10576300238C8A828B83E58245836006A3A3E0F9B9
:10577300800279007F0202114274F6120DF3ECFFEE
:1057830012238C8B09A909EA496015EA2402F582E0
:10579300E439F583EF6005E0D2E68003E0C2E6F08A
:1057A30080D274F0120DF3EAFEEBFF8C098D0A121E
:1057B300236E8A0C8B0DEA4B7003025893750B0012
:1057C300741012177F126C1CFAE9FB80128C828D05
:1057D30083A3A3A3E493A2E35003025879050B85A3
:1057E3000C82850D83A3A3A3E0F8E50BC3984003C4
:1057F300025893E50BF50E750F007402780E12161E
:105803004D850C82850D831258A8125898EE687046
:1058130002EF6970C88A828B83E0F88C828D83A340
:10582300A3E493C39840B6741165097019740165B4
:105833000A609AE50A70A68C828D83A3A3A3E493DE
:10584300A2E240328097741365097044E50A700D33
:105853008C828D83A3A3A3E493A2E080E574016506
:105863000A60030257E08C828D83A3A3A3E493A26F
:10587300E140030257E0741212177F12598F740428
:1058830012130A88828983A3A31258B6790180026E
:1058930079000256BAE8FCE9FD8882F583E493F8BF
:1058A300740193F922A3A3A3A3E0250EF8A3E03583
:1058B3000FF9221258BFF0228E828F83E08A828BE7
:1058C300832274F0120DF38A088B098C0B12237454
:1058D3008A0E8B0FEA4B700302597C7A007B0074AB
:1058E3001012177F12601B80050AEA70010B850EE8
:1058F30082850F83A3A3A3A3A3A3A3E0F8C3EA987A
:10590300EB940050748A0C8B0D7403780C12164DB3
:10591300850E82850F83A3A3A3A3125981125898DE
:10592300E508687003E5096970BFA3A3E493F50C68
:10593300740193F50D8E828F8312725EC3E50C980A
:10594300E50D9940A48C828D83A3A3A3A3A3E49321
:10595300A2E7E433650B7091741212177F12598F0B
:10596300740812130A88828983A3A312725E8E823B
:105973008F83126E087901800279000256BAA3A3BD
:10598300A3A3E0250CF8A3E0350DF9221273208CB4
:10599300828D83E8FCE9FD2274F1120DF3EAFEEB3C
:1059A300FFECFAEDFBEE4F7003025B0DEC2402F506
:1059B3000CE43BF50D8C828D83A3AC82AD838E0802
:1059C3008F09750A00E91212BA044142DA5A4344B4
:1059D300EC5AE0E2A55AE8E9515A2108435A095121
:1059E3005A0A675A0BA55A10435A18435A19515A5F
:1059F3001A675A1BA55A20435A21515A22675A2320
:105A0300A55A24B65A25BF5A26C85A27D15A28431D
:105A13005A29515A2A675A2BA55A2CB65A2DBF5ABE
:105A23002EC85A2FD15A30435A31515A38515A3904
:105A3300A55A3AD15AEAA55AF0D15AF1FE5A0D5B4A
:105A43008E828F831258B6ECFAEDFB025B0D8E82C9
:105A53008F831246961255398C828D83F00A0AABD6
:105A63000D025B0D8E828F8378081217108A828B4A
:105A730083E50812697B7808121710E5098C828D7B
:105A83008312697B7808121710741078081214892E
:105A9300850C82850D83E508F0EA2403FA506B0B2D
:105AA30080688E828F83121205121FDE7404121413
:105AB30005805778081213EE7C0580467808121388
:105AC300EE7C06803D78081213EE7C07803478085C
:105AD3001213EE7C08802B78081213EE8E828F83CC
:105AE300E02401FCE43400800F78081213EE8E8268
:105AF3008F83125C97FCE439FD800978081213EE5A
:105B03007C107D00126176121405025D02C082C012
